{
  "address": "0x9C3Ca3CEDd5d695DF32aBA05776Ce17D2B42d66F",
  "abi": [
    {
      "inputs": [],
      "stateMutability": "nonpayable",
      "type": "constructor"
    },
    {
      "anonymous": false,
      "inputs": [
        {
          "indexed": true,
          "internalType": "address",
          "name": "by",
          "type": "address"
        },
        {
          "indexed": false,
          "internalType": "string",
          "name": "name",
          "type": "string"
        },
        {
          "indexed": false,
          "internalType": "string",
          "name": "symbol",
          "type": "string"
        },
        {
          "indexed": false,
          "internalType": "address",
          "name": "to",
          "type": "address"
        }
      ],
      "name": "ERC1155CollectionMinted",
      "type": "event"
    },
    {
      "inputs": [
        {
          "internalType": "string",
          "name": "_name",
          "type": "string"
        },
        {
          "internalType": "string",
          "name": "_symbol",
          "type": "string"
        },
        {
          "internalType": "string",
          "name": "_baseTokenURI",
          "type": "string"
        },
        {
          "internalType": "address",
          "name": "_to",
          "type": "address"
        },
        {
          "internalType": "uint256[]",
          "name": "_ids",
          "type": "uint256[]"
        },
        {
          "internalType": "uint256[]",
          "name": "_amounts",
          "type": "uint256[]"
        },
        {
          "internalType": "bytes",
          "name": "_data",
          "type": "bytes"
        }
      ],
      "name": "mintERC1155Collection",
      "outputs": [
        {
          "internalType": "address",
          "name": "",
          "type": "address"
        }
      ],
      "stateMutability": "nonpayable",
      "type": "function"
    }
  ],
  "transactionHash": "0x4e7251a88c71818829efe79ddd7e9abcce505e9855f468188bab22a2e4649e64",
  "args": [],
  "numDeployments": 1,
  "solcInputHash": "9fe5f00d6f946bf2233e42ad1e6ddf29",
  "bytecode": "0x608060405234801561001057600080fd5b50612a10806100206000396000f3fe60806040523480156200001157600080fd5b50600436106200002e5760003560e01c80636c3908b41462000033575b600080fd5b6200004a620000443660046200027a565b62000066565b6040516001600160a01b03909116815260200160405180910390f35b60008033898989898989896040516200007f9062000105565b6200009298979695949392919062000423565b604051809103906000f080158015620000af573d6000803e3d6000fd5b509050336001600160a01b03167f9ae726f142f31696d26441012b48637ad4ef8f2693a2b367abe0f86ab8ed5f538a8a89604051620000f193929190620004ce565b60405180910390a298975050505050505050565b6124c9806200051283390190565b634e487b7160e01b600052604160045260246000fd5b604051601f8201601f1916810167ffffffffffffffff8111828210171562000155576200015562000113565b604052919050565b600082601f8301126200016f57600080fd5b813567ffffffffffffffff8111156200018c576200018c62000113565b620001a1601f8201601f191660200162000129565b818152846020838601011115620001b757600080fd5b816020850160208301376000918101602001919091529392505050565b80356001600160a01b0381168114620001ec57600080fd5b919050565b600082601f8301126200020357600080fd5b8135602067ffffffffffffffff82111562000222576200022262000113565b8160051b6200023382820162000129565b92835284810182019282810190878511156200024e57600080fd5b83870192505b848310156200026f5782358252918301919083019062000254565b979650505050505050565b600080600080600080600060e0888a0312156200029657600080fd5b873567ffffffffffffffff80821115620002af57600080fd5b620002bd8b838c016200015d565b985060208a0135915080821115620002d457600080fd5b620002e28b838c016200015d565b975060408a0135915080821115620002f957600080fd5b620003078b838c016200015d565b96506200031760608b01620001d4565b955060808a01359150808211156200032e57600080fd5b6200033c8b838c01620001f1565b945060a08a01359150808211156200035357600080fd5b620003618b838c01620001f1565b935060c08a01359150808211156200037857600080fd5b50620003878a828b016200015d565b91505092959891949750929550565b6000815180845260005b81811015620003be57602081850181015186830182015201620003a0565b81811115620003d1576000602083870101525b50601f01601f19169290920160200192915050565b600081518084526020808501945080840160005b838110156200041857815187529582019590820190600101620003fa565b509495945050505050565b60006101006001600160a01b03808c168452816020850152620004498285018c62000396565b915083820360408501526200045f828b62000396565b9150838203606085015262000475828a62000396565b908816608085015283810360a08501529050620004938187620003e6565b905082810360c0840152620004a98186620003e6565b905082810360e0840152620004bf818562000396565b9b9a5050505050505050505050565b606081526000620004e3606083018662000396565b8281036020840152620004f7818662000396565b9150506001600160a01b038316604083015294935050505056fe60806040523480156200001157600080fd5b50604051620024c9380380620024c983398101604081905262000034916200075e565b846200004081620000a4565b508651620000569060049060208a019062000522565b5085516200006c90600590602089019062000522565b50600680546001600160a01b0319166001600160a01b038a161790556200009684848484620000bd565b505050505050505062000b24565b8051620000b990600290602084019062000522565b5050565b620000d6848484846200016060201b6200087a1760201c565b60005b83518110156200015957828181518110620000f857620000f86200088d565b6020026020010151600360008684815181106200011957620001196200088d565b602002602001015181526020019081526020016000206000828254620001409190620008b9565b9091555062000151905081620008d4565b9050620000d9565b5050505050565b6001600160a01b038416620001c65760405162461bcd60e51b815260206004820152602160248201527f455243313135353a206d696e7420746f20746865207a65726f206164647265736044820152607360f81b60648201526084015b60405180910390fd5b81518351146200022a5760405162461bcd60e51b815260206004820152602860248201527f455243313135353a2069647320616e6420616d6f756e7473206c656e677468206044820152670dad2e6dac2e8c6d60c31b6064820152608401620001bd565b3360005b8451811015620002d2578381815181106200024d576200024d6200088d565b60200260200101516000808784815181106200026d576200026d6200088d565b602002602001015181526020019081526020016000206000886001600160a01b03166001600160a01b031681526020019081526020016000206000828254620002b79190620008b9565b90915550819050620002c981620008d4565b9150506200022e565b50846001600160a01b031660006001600160a01b0316826001600160a01b03167f4a39dc06d4c0dbc64b70af90fd698a233a518aa5d07e595d983b8c0526c8f7fb8787604051620003259291906200092f565b60405180910390a4620001598160008787878762000346565b505050505050565b62000365846001600160a01b03166200051c60201b62000a401760201c565b156200033e5760405163bc197c8160e01b81526001600160a01b0385169063bc197c8190620003a190899089908890889088906004016200098f565b6020604051808303816000875af1925050508015620003df575060408051601f3d908101601f19168201909252620003dc91810190620009f3565b60015b620004a057620003ee62000a26565b806308c379a014156200042f57506200040662000a43565b8062000413575062000431565b8060405162461bcd60e51b8152600401620001bd919062000ad2565b505b60405162461bcd60e51b815260206004820152603460248201527f455243313135353a207472616e7366657220746f206e6f6e204552433131353560448201527f526563656976657220696d706c656d656e7465720000000000000000000000006064820152608401620001bd565b6001600160e01b0319811663bc197c8160e01b14620005135760405162461bcd60e51b815260206004820152602860248201527f455243313135353a204552433131353552656365697665722072656a656374656044820152676420746f6b656e7360c01b6064820152608401620001bd565b50505050505050565b3b151590565b828054620005309062000ae7565b90600052602060002090601f0160209004810192826200055457600085556200059f565b82601f106200056f57805160ff19168380011785556200059f565b828001600101855582156200059f579182015b828111156200059f57825182559160200191906001019062000582565b50620005ad929150620005b1565b5090565b5b80821115620005ad5760008155600101620005b2565b80516001600160a01b0381168114620005e057600080fd5b919050565b634e487b7160e01b600052604160045260246000fd5b601f8201601f191681016001600160401b0381118282101715620006235762000623620005e5565b6040525050565b60005b83811015620006475781810151838201526020016200062d565b8381111562000657576000848401525b50505050565b600082601f8301126200066f57600080fd5b81516001600160401b038111156200068b576200068b620005e5565b604051620006a4601f8301601f191660200182620005fb565b818152846020838601011115620006ba57600080fd5b620006cd8260208301602087016200062a565b949350505050565b600082601f830112620006e757600080fd5b815160206001600160401b03821115620007055762000705620005e5565b8160051b6040516200071a83830182620005fb565b928352848101820192828101878511156200073457600080fd5b83870192505b848310156200075357825181529183019183016200073a565b509695505050505050565b600080600080600080600080610100898b0312156200077c57600080fd5b6200078789620005c8565b60208a01519098506001600160401b0380821115620007a557600080fd5b620007b38c838d016200065d565b985060408b0151915080821115620007ca57600080fd5b620007d88c838d016200065d565b975060608b0151915080821115620007ef57600080fd5b620007fd8c838d016200065d565b96506200080d60808c01620005c8565b955060a08b01519150808211156200082457600080fd5b620008328c838d01620006d5565b945060c08b01519150808211156200084957600080fd5b620008578c838d01620006d5565b935060e08b01519150808211156200086e57600080fd5b506200087d8b828c016200065d565b9150509295985092959890939650565b634e487b7160e01b600052603260045260246000fd5b634e487b7160e01b600052601160045260246000fd5b60008219821115620008cf57620008cf620008a3565b500190565b6000600019821415620008eb57620008eb620008a3565b5060010190565b600081518084526020808501945080840160005b83811015620009245781518752958201959082019060010162000906565b509495945050505050565b604081526000620009446040830185620008f2565b8281036020840152620009588185620008f2565b95945050505050565b600081518084526200097b8160208601602086016200062a565b601f01601f19169290920160200192915050565b6001600160a01b0386811682528516602082015260a060408201819052600090620009bd90830186620008f2565b8281036060840152620009d18186620008f2565b90508281036080840152620009e7818562000961565b98975050505050505050565b60006020828403121562000a0657600080fd5b81516001600160e01b03198116811462000a1f57600080fd5b9392505050565b600060033d111562000a405760046000803e5060005160e01c5b90565b600060443d101562000a525790565b6040516003193d81016004833e81513d6001600160401b03808311602484018310171562000a8257505050505090565b828501915081518181111562000a9b5750505050505090565b843d870101602082850101111562000ab65750505050505090565b62000ac760208286010187620005fb565b509095945050505050565b60208152600062000a1f602083018462000961565b600181811c9082168062000afc57607f821691505b6020821081141562000b1e57634e487b7160e01b600052602260045260246000fd5b50919050565b6119958062000b346000396000f3fe608060405234801561001057600080fd5b50600436106100e95760003560e01c80634e1273f41161008c578063a22cb46511610066578063a22cb465146101fc578063bd85b0391461020f578063e985e9c51461022f578063f242432a1461026b57600080fd5b80634e1273f4146101b25780634f558e79146101d257806395d89b41146101f457600080fd5b806306fdde03116100c857806306fdde03146101625780630e89341c146101775780632eb2c2d61461018a578063440703d71461019f57600080fd5b8062fdd58e146100ee57806301ffc9a71461011457806302d05d3f14610137575b600080fd5b6101016100fc3660046111d7565b61027e565b6040519081526020015b60405180910390f35b61012761012236600461121a565b610327565b604051901515815260200161010b565b60065461014a906001600160a01b031681565b6040516001600160a01b03909116815260200161010b565b61016a610379565b60405161010b919061128b565b61016a61018536600461129e565b610407565b61019d610198366004611403565b61049b565b005b61019d6101ad3660046114ad565b61053d565b6101c56101c0366004611546565b6105a9565b60405161010b919061164c565b6101276101e036600461129e565b600090815260036020526040902054151590565b61016a6106e7565b61019d61020a36600461165f565b6106f4565b61010161021d36600461129e565b60009081526003602052604090205490565b61012761023d36600461169b565b6001600160a01b03918216600090815260016020908152604080832093909416825291909152205460ff1690565b61019d6102793660046116ce565b6107df565b60006001600160a01b0383166103015760405162461bcd60e51b815260206004820152602b60248201527f455243313135353a2062616c616e636520717565727920666f7220746865207a60448201527f65726f206164647265737300000000000000000000000000000000000000000060648201526084015b60405180910390fd5b506000908152602081815260408083206001600160a01b03949094168352929052205490565b60006001600160e01b03198216636cdb3d1360e11b148061035857506001600160e01b031982166303a24d0760e21b145b8061037357506301ffc9a760e01b6001600160e01b03198316145b92915050565b6004805461038690611733565b80601f01602080910402602001604051908101604052809291908181526020018280546103b290611733565b80156103ff5780601f106103d4576101008083540402835291602001916103ff565b820191906000526020600020905b8154815290600101906020018083116103e257829003601f168201915b505050505081565b60606002805461041690611733565b80601f016020809104026020016040519081016040528092919081815260200182805461044290611733565b801561048f5780601f106104645761010080835404028352916020019161048f565b820191906000526020600020905b81548152906001019060200180831161047257829003601f168201915b50505050509050919050565b6001600160a01b0385163314806104b757506104b7853361023d565b6105295760405162461bcd60e51b815260206004820152603260248201527f455243313135353a207472616e736665722063616c6c6572206973206e6f742060448201527f6f776e6572206e6f7220617070726f766564000000000000000000000000000060648201526084016102f8565b6105368585858585610a46565b5050505050565b6006546001600160a01b031633146105975760405162461bcd60e51b815260206004820152600c60248201527f6f6e6c792063726561746f72000000000000000000000000000000000000000060448201526064016102f8565b6105a384848484610ca4565b50505050565b606081518351146106225760405162461bcd60e51b815260206004820152602960248201527f455243313135353a206163636f756e747320616e6420696473206c656e67746860448201527f206d69736d61746368000000000000000000000000000000000000000000000060648201526084016102f8565b6000835167ffffffffffffffff81111561063e5761063e6112b7565b604051908082528060200260200182016040528015610667578160200160208202803683370190505b50905060005b84518110156106df576106b285828151811061068b5761068b61176e565b60200260200101518583815181106106a5576106a561176e565b602002602001015161027e565b8282815181106106c4576106c461176e565b60209081029190910101526106d88161179a565b905061066d565b509392505050565b6005805461038690611733565b336001600160a01b03831614156107735760405162461bcd60e51b815260206004820152602960248201527f455243313135353a2073657474696e6720617070726f76616c2073746174757360448201527f20666f722073656c66000000000000000000000000000000000000000000000060648201526084016102f8565b3360008181526001602090815260408083206001600160a01b03871680855290835292819020805460ff191686151590811790915590519081529192917f17307eab39ab6107e8899845ad3d59bd9653f200f220920489ca2b5937696c31910160405180910390a35050565b6001600160a01b0385163314806107fb57506107fb853361023d565b61086d5760405162461bcd60e51b815260206004820152602960248201527f455243313135353a2063616c6c6572206973206e6f74206f776e6572206e6f7260448201527f20617070726f766564000000000000000000000000000000000000000000000060648201526084016102f8565b6105368585858585610d27565b6001600160a01b0384166108da5760405162461bcd60e51b815260206004820152602160248201527f455243313135353a206d696e7420746f20746865207a65726f206164647265736044820152607360f81b60648201526084016102f8565b815183511461093c5760405162461bcd60e51b815260206004820152602860248201527f455243313135353a2069647320616e6420616d6f756e7473206c656e677468206044820152670dad2e6dac2e8c6d60c31b60648201526084016102f8565b3360005b84518110156109d85783818151811061095b5761095b61176e565b60200260200101516000808784815181106109785761097861176e565b602002602001015181526020019081526020016000206000886001600160a01b03166001600160a01b0316815260200190815260200160002060008282546109c091906117b5565b909155508190506109d08161179a565b915050610940565b50846001600160a01b031660006001600160a01b0316826001600160a01b03167f4a39dc06d4c0dbc64b70af90fd698a233a518aa5d07e595d983b8c0526c8f7fb8787604051610a299291906117cd565b60405180910390a461053681600087878787610ece565b3b151590565b8151835114610aa85760405162461bcd60e51b815260206004820152602860248201527f455243313135353a2069647320616e6420616d6f756e7473206c656e677468206044820152670dad2e6dac2e8c6d60c31b60648201526084016102f8565b6001600160a01b038416610b0c5760405162461bcd60e51b815260206004820152602560248201527f455243313135353a207472616e7366657220746f20746865207a65726f206164604482015264647265737360d81b60648201526084016102f8565b3360005b8451811015610c36576000858281518110610b2d57610b2d61176e565b602002602001015190506000858381518110610b4b57610b4b61176e565b602090810291909101810151600084815280835260408082206001600160a01b038e168352909352919091205490915081811015610bde5760405162461bcd60e51b815260206004820152602a60248201527f455243313135353a20696e73756666696369656e742062616c616e636520666f60448201526939103a3930b739b332b960b11b60648201526084016102f8565b6000838152602081815260408083206001600160a01b038e8116855292528083208585039055908b16825281208054849290610c1b9084906117b5565b9250508190555050505080610c2f9061179a565b9050610b10565b50846001600160a01b0316866001600160a01b0316826001600160a01b03167f4a39dc06d4c0dbc64b70af90fd698a233a518aa5d07e595d983b8c0526c8f7fb8787604051610c869291906117cd565b60405180910390a4610c9c818787878787610ece565b505050505050565b610cb08484848461087a565b60005b835181101561053657828181518110610cce57610cce61176e565b602002602001015160036000868481518110610cec57610cec61176e565b602002602001015181526020019081526020016000206000828254610d1191906117b5565b90915550610d2090508161179a565b9050610cb3565b6001600160a01b038416610d8b5760405162461bcd60e51b815260206004820152602560248201527f455243313135353a207472616e7366657220746f20746865207a65726f206164604482015264647265737360d81b60648201526084016102f8565b33610da4818787610d9b88611074565b61053688611074565b6000848152602081815260408083206001600160a01b038a16845290915290205483811015610e285760405162461bcd60e51b815260206004820152602a60248201527f455243313135353a20696e73756666696369656e742062616c616e636520666f60448201526939103a3930b739b332b960b11b60648201526084016102f8565b6000858152602081815260408083206001600160a01b038b8116855292528083208785039055908816825281208054869290610e659084906117b5565b909155505060408051868152602081018690526001600160a01b03808916928a821692918616917fc3d58168c5ae7397731d063d5bbf3d657854427343f4c083240f7aacaa2d0f62910160405180910390a4610ec58288888888886110bf565b50505050505050565b6001600160a01b0384163b15610c9c5760405163bc197c8160e01b81526001600160a01b0385169063bc197c8190610f1290899089908890889088906004016117fb565b6020604051808303816000875af1925050508015610f4d575060408051601f3d908101601f19168201909252610f4a91810190611859565b60015b61100357610f59611876565b806308c379a01415610f935750610f6e611892565b80610f795750610f95565b8060405162461bcd60e51b81526004016102f8919061128b565b505b60405162461bcd60e51b815260206004820152603460248201527f455243313135353a207472616e7366657220746f206e6f6e204552433131353560448201527f526563656976657220696d706c656d656e74657200000000000000000000000060648201526084016102f8565b6001600160e01b0319811663bc197c8160e01b14610ec55760405162461bcd60e51b815260206004820152602860248201527f455243313135353a204552433131353552656365697665722072656a656374656044820152676420746f6b656e7360c01b60648201526084016102f8565b604080516001808252818301909252606091600091906020808301908036833701905050905082816000815181106110ae576110ae61176e565b602090810291909101015292915050565b6001600160a01b0384163b15610c9c5760405163f23a6e6160e01b81526001600160a01b0385169063f23a6e6190611103908990899088908890889060040161191c565b6020604051808303816000875af192505050801561113e575060408051601f3d908101601f1916820190925261113b91810190611859565b60015b61114a57610f59611876565b6001600160e01b0319811663f23a6e6160e01b14610ec55760405162461bcd60e51b815260206004820152602860248201527f455243313135353a204552433131353552656365697665722072656a656374656044820152676420746f6b656e7360c01b60648201526084016102f8565b80356001600160a01b03811681146111d257600080fd5b919050565b600080604083850312156111ea57600080fd5b6111f3836111bb565b946020939093013593505050565b6001600160e01b03198116811461121757600080fd5b50565b60006020828403121561122c57600080fd5b813561123781611201565b9392505050565b6000815180845260005b8181101561126457602081850181015186830182015201611248565b81811115611276576000602083870101525b50601f01601f19169290920160200192915050565b602081526000611237602083018461123e565b6000602082840312156112b057600080fd5b5035919050565b634e487b7160e01b600052604160045260246000fd5b601f8201601f1916810167ffffffffffffffff811182821017156112f3576112f36112b7565b6040525050565b600067ffffffffffffffff821115611314576113146112b7565b5060051b60200190565b600082601f83011261132f57600080fd5b8135602061133c826112fa565b60405161134982826112cd565b83815260059390931b850182019282810191508684111561136957600080fd5b8286015b84811015611384578035835291830191830161136d565b509695505050505050565b600082601f8301126113a057600080fd5b813567ffffffffffffffff8111156113ba576113ba6112b7565b6040516113d1601f8301601f1916602001826112cd565b8181528460208386010111156113e657600080fd5b816020850160208301376000918101602001919091529392505050565b600080600080600060a0868803121561141b57600080fd5b611424866111bb565b9450611432602087016111bb565b9350604086013567ffffffffffffffff8082111561144f57600080fd5b61145b89838a0161131e565b9450606088013591508082111561147157600080fd5b61147d89838a0161131e565b9350608088013591508082111561149357600080fd5b506114a08882890161138f565b9150509295509295909350565b600080600080608085870312156114c357600080fd5b6114cc856111bb565b9350602085013567ffffffffffffffff808211156114e957600080fd5b6114f58883890161131e565b9450604087013591508082111561150b57600080fd5b6115178883890161131e565b9350606087013591508082111561152d57600080fd5b5061153a8782880161138f565b91505092959194509250565b6000806040838503121561155957600080fd5b823567ffffffffffffffff8082111561157157600080fd5b818501915085601f83011261158557600080fd5b81356020611592826112fa565b60405161159f82826112cd565b83815260059390931b85018201928281019150898411156115bf57600080fd5b948201945b838610156115e4576115d5866111bb565b825294820194908201906115c4565b965050860135925050808211156115fa57600080fd5b506116078582860161131e565b9150509250929050565b600081518084526020808501945080840160005b8381101561164157815187529582019590820190600101611625565b509495945050505050565b6020815260006112376020830184611611565b6000806040838503121561167257600080fd5b61167b836111bb565b91506020830135801515811461169057600080fd5b809150509250929050565b600080604083850312156116ae57600080fd5b6116b7836111bb565b91506116c5602084016111bb565b90509250929050565b600080600080600060a086880312156116e657600080fd5b6116ef866111bb565b94506116fd602087016111bb565b93506040860135925060608601359150608086013567ffffffffffffffff81111561172757600080fd5b6114a08882890161138f565b600181811c9082168061174757607f821691505b6020821081141561176857634e487b7160e01b600052602260045260246000fd5b50919050565b634e487b7160e01b600052603260045260246000fd5b634e487b7160e01b600052601160045260246000fd5b60006000198214156117ae576117ae611784565b5060010190565b600082198211156117c8576117c8611784565b500190565b6040815260006117e06040830185611611565b82810360208401526117f28185611611565b95945050505050565b60006001600160a01b03808816835280871660208401525060a0604083015261182760a0830186611611565b82810360608401526118398186611611565b9050828103608084015261184d818561123e565b98975050505050505050565b60006020828403121561186b57600080fd5b815161123781611201565b600060033d111561188f5760046000803e5060005160e01c5b90565b600060443d10156118a05790565b6040516003193d81016004833e81513d67ffffffffffffffff81602484011181841117156118d057505050505090565b82850191508151818111156118e85750505050505090565b843d87010160208285010111156119025750505050505090565b611911602082860101876112cd565b509095945050505050565b60006001600160a01b03808816835280871660208401525084604083015283606083015260a0608083015261195460a083018461123e565b97965050505050505056fea2646970667358221220ca325fc42285f9f912c7d3666e68adf01c92997df56aacb0e998d1602904b7ec64736f6c634300080b0033a264697066735822122058ece68624b2fc737372ebf63d6763c015b69e00ac175964cf3a5c23807612e364736f6c634300080b0033",
  "devdoc": {
    "kind": "dev",
    "methods": {
      "mintERC1155Collection(string,string,string,address,uint256[],uint256[],bytes)": {
        "params": {
          "_amounts": "Token amount array to mint",
          "_data": "Data",
          "_ids": "Token Id array to mint",
          "_name": "Collection name",
          "_symbol": "Collection symbol",
          "_to": "Collection receiver"
        }
      }
    },
    "version": 1
  },
  "userdoc": {
    "kind": "user",
    "methods": {
      "mintERC1155Collection(string,string,string,address,uint256[],uint256[],bytes)": {
        "notice": "Mint ERC1155 collection"
      }
    },
    "version": 1
  },
  "storageLayout": {
    "storage": [],
    "types": null
  }
}