{
  "address": "0x68450754833D73a399147Cc0246bb8D43D9bA616",
  "abi": [
    {
      "inputs": [],
      "stateMutability": "nonpayable",
      "type": "constructor"
    },
    {
      "anonymous": false,
      "inputs": [
        {
          "indexed": true,
          "internalType": "address",
          "name": "by",
          "type": "address"
        },
        {
          "indexed": false,
          "internalType": "string",
          "name": "name",
          "type": "string"
        },
        {
          "indexed": false,
          "internalType": "string",
          "name": "symbol",
          "type": "string"
        },
        {
          "indexed": false,
          "internalType": "address",
          "name": "to",
          "type": "address"
        }
      ],
      "name": "ERC721CollectionMinted",
      "type": "event"
    },
    {
      "inputs": [
        {
          "internalType": "string",
          "name": "_name",
          "type": "string"
        },
        {
          "internalType": "string",
          "name": "_symbol",
          "type": "string"
        },
        {
          "internalType": "string",
          "name": "_baseTokenURI",
          "type": "string"
        },
        {
          "internalType": "address",
          "name": "_to",
          "type": "address"
        },
        {
          "internalType": "uint256",
          "name": "_tokenCount",
          "type": "uint256"
        }
      ],
      "name": "mintERC721Collection",
      "outputs": [
        {
          "internalType": "address",
          "name": "",
          "type": "address"
        }
      ],
      "stateMutability": "nonpayable",
      "type": "function"
    }
  ],
  "transactionHash": "0x016b502bc7d9bad5889b33c7e52c94f406de646cbb82b73fb1826c5cb439660c",
  "args": [],
  "numDeployments": 1,
  "solcInputHash": "9fe5f00d6f946bf2233e42ad1e6ddf29",
  "bytecode": "0x608060405234801561001057600080fd5b5061266f806100206000396000f3fe60806040523480156200001157600080fd5b50600436106200002e5760003560e01c8063b8bfceec1462000033575b600080fd5b6200004a62000044366004620001b8565b62000066565b6040516001600160a01b03909116815260200160405180910390f35b6000803387878787876040516200007d90620000ff565b6200008e96959493929190620002c2565b604051809103906000f080158015620000ab573d6000803e3d6000fd5b509050336001600160a01b03167f253ae0fb9cafa39c3690bc29d4aa35d28adafbfa4bad0215e5ce7fc317fa7327888887604051620000ed9392919062000328565b60405180910390a29695505050505050565b6122ce806200036c83390190565b634e487b7160e01b600052604160045260246000fd5b600082601f8301126200013557600080fd5b813567ffffffffffffffff808211156200015357620001536200010d565b604051601f8301601f19908116603f011681019082821181831017156200017e576200017e6200010d565b816040528381528660208588010111156200019857600080fd5b836020870160208301376000602085830101528094505050505092915050565b600080600080600060a08688031215620001d157600080fd5b853567ffffffffffffffff80821115620001ea57600080fd5b620001f889838a0162000123565b965060208801359150808211156200020f57600080fd5b6200021d89838a0162000123565b955060408801359150808211156200023457600080fd5b50620002438882890162000123565b93505060608601356001600160a01b03811681146200026157600080fd5b949793965091946080013592915050565b6000815180845260005b818110156200029a576020818501810151868301820152016200027c565b81811115620002ad576000602083870101525b50601f01601f19169290920160200192915050565b60006001600160a01b03808916835260c06020840152620002e760c084018962000272565b8381036040850152620002fb818962000272565b9050838103606085015262000311818862000272565b959091166080840152505060a00152949350505050565b6060815260006200033d606083018662000272565b828103602084015262000351818662000272565b9150506001600160a01b038316604083015294935050505056fe60806040523480156200001157600080fd5b50604051620022ce380380620022ce833981016040819052620000349162000707565b8451859085906200004d90600090602085019062000577565b5080516200006390600190602084019062000577565b5050600a80546001600160a01b0319166001600160a01b0389161790555082516200009690600c90602086019062000577565b50620000a38282620000af565b50505050505062000899565b60005b81811015620000fb57600b8054906000620000cd83620007dd565b9190505550620000e683600b546200010060201b60201c565b80620000f281620007dd565b915050620000b2565b505050565b6001600160a01b0382166200015c5760405162461bcd60e51b815260206004820181905260248201527f4552433732313a206d696e7420746f20746865207a65726f206164647265737360448201526064015b60405180910390fd5b6000818152600260205260409020546001600160a01b031615620001c35760405162461bcd60e51b815260206004820152601c60248201527f4552433732313a20746f6b656e20616c7265616479206d696e74656400000000604482015260640162000153565b620001d1600083836200025a565b6001600160a01b0382166000908152600360205260408120805460019290620001fc908490620007fb565b909155505060008181526002602052604080822080546001600160a01b0319166001600160a01b03861690811790915590518392907fddf252ad1be2c89b69c2b068fc378daa952ba7f163c4a11628f55a4df523b3ef908290a45050565b62000272838383620000fb60201b6200056e1760201c565b6001600160a01b038316620002d057620002ca81600880546000838152600960205260408120829055600182018355919091527ff3f7a9fe364faab93b216da50a3214154f22a0a2b415b23a84c8169e8b636ee30155565b620002f6565b816001600160a01b0316836001600160a01b031614620002f657620002f6838262000336565b6001600160a01b0382166200031057620000fb81620003e3565b826001600160a01b0316826001600160a01b031614620000fb57620000fb82826200049d565b600060016200035084620004ee60201b620008541760201c565b6200035c919062000816565b600083815260076020526040902054909150808214620003b0576001600160a01b03841660009081526006602090815260408083208584528252808320548484528184208190558352600790915290208190555b5060009182526007602090815260408084208490556001600160a01b039094168352600681528383209183525290812055565b600854600090620003f79060019062000816565b6000838152600960205260408120546008805493945090928490811062000422576200042262000830565b90600052602060002001549050806008838154811062000446576200044662000830565b600091825260208083209091019290925582815260099091526040808220849055858252812055600880548062000481576200048162000846565b6001900381819060005260206000200160009055905550505050565b6000620004b583620004ee60201b620008541760201c565b6001600160a01b039093166000908152600660209081526040808320868452825280832085905593825260079052919091209190915550565b60006001600160a01b0382166200055b5760405162461bcd60e51b815260206004820152602a60248201527f4552433732313a2062616c616e636520717565727920666f7220746865207a65604482015269726f206164647265737360b01b606482015260840162000153565b506001600160a01b031660009081526003602052604090205490565b82805462000585906200085c565b90600052602060002090601f016020900481019282620005a95760008555620005f4565b82601f10620005c457805160ff1916838001178555620005f4565b82800160010185558215620005f4579182015b82811115620005f4578251825591602001919060010190620005d7565b506200060292915062000606565b5090565b5b8082111562000602576000815560010162000607565b80516001600160a01b03811681146200063557600080fd5b919050565b634e487b7160e01b600052604160045260246000fd5b600082601f8301126200066257600080fd5b81516001600160401b03808211156200067f576200067f6200063a565b604051601f8301601f19908116603f01168101908282118183101715620006aa57620006aa6200063a565b81604052838152602092508683858801011115620006c757600080fd5b600091505b83821015620006eb5785820183015181830184015290820190620006cc565b83821115620006fd5760008385830101525b9695505050505050565b60008060008060008060c087890312156200072157600080fd5b6200072c876200061d565b60208801519096506001600160401b03808211156200074a57600080fd5b620007588a838b0162000650565b965060408901519150808211156200076f57600080fd5b6200077d8a838b0162000650565b955060608901519150808211156200079457600080fd5b50620007a389828a0162000650565b935050620007b4608088016200061d565b915060a087015190509295509295509295565b634e487b7160e01b600052601160045260246000fd5b6000600019821415620007f457620007f4620007c7565b5060010190565b60008219821115620008115762000811620007c7565b500190565b6000828210156200082b576200082b620007c7565b500390565b634e487b7160e01b600052603260045260246000fd5b634e487b7160e01b600052603160045260246000fd5b600181811c908216806200087157607f821691505b602082108114156200089357634e487b7160e01b600052602260045260246000fd5b50919050565b611a2580620008a96000396000f3fe608060405234801561001057600080fd5b50600436106101505760003560e01c806340c10f19116100cd57806395d89b4111610081578063b88d4fde11610066578063b88d4fde146102a4578063c87b56dd146102b7578063e985e9c5146102ca57600080fd5b806395d89b4114610289578063a22cb4651461029157600080fd5b80634f6ccce7116100b25780634f6ccce7146102505780636352211e1461026357806370a082311461027657600080fd5b806340c10f191461022a57806342842e0e1461023d57600080fd5b8063081812fc1161012457806318160ddd1161010957806318160ddd146101fc57806323b872dd146102045780632f745c591461021757600080fd5b8063081812fc146101d4578063095ea7b3146101e757600080fd5b80629a9b7b1461015557806301ffc9a71461017157806302d05d3f1461019457806306fdde03146101bf575b600080fd5b61015e600b5481565b6040519081526020015b60405180910390f35b61018461017f3660046115c3565b610306565b6040519015158152602001610168565b600a546101a7906001600160a01b031681565b6040516001600160a01b039091168152602001610168565b6101c7610331565b6040516101689190611638565b6101a76101e236600461164b565b6103c3565b6101fa6101f5366004611680565b61045d565b005b60085461015e565b6101fa6102123660046116aa565b610573565b61015e610225366004611680565b6105fa565b6101fa610238366004611680565b6106a2565b6101fa61024b3660046116aa565b61070a565b61015e61025e36600461164b565b610725565b6101a761027136600461164b565b6107c9565b61015e6102843660046116e6565b610854565b6101c76108ee565b6101fa61029f366004611701565b6108fd565b6101fa6102b2366004611753565b6109c2565b6101c76102c536600461164b565b610a50565b6101846102d836600461182f565b6001600160a01b03918216600090815260056020908152604080832093909416825291909152205460ff1690565b60006001600160e01b0319821663780e9d6360e01b148061032b575061032b82610b39565b92915050565b60606000805461034090611862565b80601f016020809104026020016040519081016040528092919081815260200182805461036c90611862565b80156103b95780601f1061038e576101008083540402835291602001916103b9565b820191906000526020600020905b81548152906001019060200180831161039c57829003601f168201915b5050505050905090565b6000818152600260205260408120546001600160a01b03166104415760405162461bcd60e51b815260206004820152602c60248201527f4552433732313a20617070726f76656420717565727920666f72206e6f6e657860448201526b34b9ba32b73a103a37b5b2b760a11b60648201526084015b60405180910390fd5b506000908152600460205260409020546001600160a01b031690565b6000610468826107c9565b9050806001600160a01b0316836001600160a01b031614156104d65760405162461bcd60e51b815260206004820152602160248201527f4552433732313a20617070726f76616c20746f2063757272656e74206f776e656044820152603960f91b6064820152608401610438565b336001600160a01b03821614806104f257506104f281336102d8565b6105645760405162461bcd60e51b815260206004820152603860248201527f4552433732313a20617070726f76652063616c6c6572206973206e6f74206f7760448201527f6e6572206e6f7220617070726f76656420666f7220616c6c00000000000000006064820152608401610438565b61056e8383610b89565b505050565b61057d3382610c04565b6105ef5760405162461bcd60e51b815260206004820152603160248201527f4552433732313a207472616e736665722063616c6c6572206973206e6f74206f60448201527f776e6572206e6f7220617070726f7665640000000000000000000000000000006064820152608401610438565b61056e838383610cfb565b600061060583610854565b82106106795760405162461bcd60e51b815260206004820152602b60248201527f455243373231456e756d657261626c653a206f776e657220696e646578206f7560448201527f74206f6620626f756e64730000000000000000000000000000000000000000006064820152608401610438565b506001600160a01b03919091166000908152600660209081526040808320938352929052205490565b600a546001600160a01b031633146106fc5760405162461bcd60e51b815260206004820152600c60248201527f6f6e6c792063726561746f7200000000000000000000000000000000000000006044820152606401610438565b6107068282610ec7565b5050565b61056e838383604051806020016040528060008152506109c2565b600061073060085490565b82106107a45760405162461bcd60e51b815260206004820152602c60248201527f455243373231456e756d657261626c653a20676c6f62616c20696e646578206f60448201527f7574206f6620626f756e647300000000000000000000000000000000000000006064820152608401610438565b600882815481106107b7576107b761189d565b90600052602060002001549050919050565b6000818152600260205260408120546001600160a01b03168061032b5760405162461bcd60e51b815260206004820152602960248201527f4552433732313a206f776e657220717565727920666f72206e6f6e657869737460448201527f656e7420746f6b656e00000000000000000000000000000000000000000000006064820152608401610438565b60006001600160a01b0382166108d25760405162461bcd60e51b815260206004820152602a60248201527f4552433732313a2062616c616e636520717565727920666f7220746865207a6560448201527f726f2061646472657373000000000000000000000000000000000000000000006064820152608401610438565b506001600160a01b031660009081526003602052604090205490565b60606001805461034090611862565b6001600160a01b0382163314156109565760405162461bcd60e51b815260206004820152601960248201527f4552433732313a20617070726f766520746f2063616c6c6572000000000000006044820152606401610438565b3360008181526005602090815260408083206001600160a01b03871680855290835292819020805460ff191686151590811790915590519081529192917f17307eab39ab6107e8899845ad3d59bd9653f200f220920489ca2b5937696c31910160405180910390a35050565b6109cc3383610c04565b610a3e5760405162461bcd60e51b815260206004820152603160248201527f4552433732313a207472616e736665722063616c6c6572206973206e6f74206f60448201527f776e6572206e6f7220617070726f7665640000000000000000000000000000006064820152608401610438565b610a4a84848484610f05565b50505050565b6000818152600260205260409020546060906001600160a01b0316610add5760405162461bcd60e51b815260206004820152602f60248201527f4552433732314d657461646174613a2055524920717565727920666f72206e6f60448201527f6e6578697374656e7420746f6b656e00000000000000000000000000000000006064820152608401610438565b6000610ae7610f8e565b90506000815111610b075760405180602001604052806000815250610b32565b80610b1184610f9d565b604051602001610b229291906118b3565b6040516020818303038152906040525b9392505050565b60006001600160e01b031982166380ac58cd60e01b1480610b6a57506001600160e01b03198216635b5e139f60e01b145b8061032b57506301ffc9a760e01b6001600160e01b031983161461032b565b6000818152600460205260409020805473ffffffffffffffffffffffffffffffffffffffff19166001600160a01b0384169081179091558190610bcb826107c9565b6001600160a01b03167f8c5be1e5ebec7d5bd14f71427d1e84f3dd0314c0f7b2291e5b200ac8c7c3b92560405160405180910390a45050565b6000818152600260205260408120546001600160a01b0316610c7d5760405162461bcd60e51b815260206004820152602c60248201527f4552433732313a206f70657261746f7220717565727920666f72206e6f6e657860448201526b34b9ba32b73a103a37b5b2b760a11b6064820152608401610438565b6000610c88836107c9565b9050806001600160a01b0316846001600160a01b03161480610cc35750836001600160a01b0316610cb8846103c3565b6001600160a01b0316145b80610cf357506001600160a01b0380821660009081526005602090815260408083209388168352929052205460ff165b949350505050565b826001600160a01b0316610d0e826107c9565b6001600160a01b031614610d8a5760405162461bcd60e51b815260206004820152602960248201527f4552433732313a207472616e73666572206f6620746f6b656e2074686174206960448201527f73206e6f74206f776e00000000000000000000000000000000000000000000006064820152608401610438565b6001600160a01b038216610dec5760405162461bcd60e51b8152602060048201526024808201527f4552433732313a207472616e7366657220746f20746865207a65726f206164646044820152637265737360e01b6064820152608401610438565b610df78383836110b3565b610e02600082610b89565b6001600160a01b0383166000908152600360205260408120805460019290610e2b9084906118f8565b90915550506001600160a01b0382166000908152600360205260408120805460019290610e5990849061190f565b9091555050600081815260026020526040808220805473ffffffffffffffffffffffffffffffffffffffff19166001600160a01b0386811691821790925591518493918716917fddf252ad1be2c89b69c2b068fc378daa952ba7f163c4a11628f55a4df523b3ef91a4505050565b60005b8181101561056e57600b8054906000610ee283611927565b9190505550610ef383600b5461116b565b80610efd81611927565b915050610eca565b610f10848484610cfb565b610f1c848484846112c6565b610a4a5760405162461bcd60e51b815260206004820152603260248201527f4552433732313a207472616e7366657220746f206e6f6e20455243373231526560448201527f63656976657220696d706c656d656e74657200000000000000000000000000006064820152608401610438565b6060600c805461034090611862565b606081610fc15750506040805180820190915260018152600360fc1b602082015290565b8160005b8115610feb5780610fd581611927565b9150610fe49050600a83611958565b9150610fc5565b60008167ffffffffffffffff8111156110065761100661173d565b6040519080825280601f01601f191660200182016040528015611030576020820181803683370190505b5090505b8415610cf3576110456001836118f8565b9150611052600a8661196c565b61105d90603061190f565b60f81b8183815181106110725761107261189d565b60200101907effffffffffffffffffffffffffffffffffffffffffffffffffffffffffffff1916908160001a9053506110ac600a86611958565b9450611034565b6001600160a01b03831661110e5761110981600880546000838152600960205260408120829055600182018355919091527ff3f7a9fe364faab93b216da50a3214154f22a0a2b415b23a84c8169e8b636ee30155565b611131565b816001600160a01b0316836001600160a01b03161461113157611131838261141a565b6001600160a01b0382166111485761056e816114b7565b826001600160a01b0316826001600160a01b03161461056e5761056e8282611566565b6001600160a01b0382166111c15760405162461bcd60e51b815260206004820181905260248201527f4552433732313a206d696e7420746f20746865207a65726f20616464726573736044820152606401610438565b6000818152600260205260409020546001600160a01b0316156112265760405162461bcd60e51b815260206004820152601c60248201527f4552433732313a20746f6b656e20616c7265616479206d696e746564000000006044820152606401610438565b611232600083836110b3565b6001600160a01b038216600090815260036020526040812080546001929061125b90849061190f565b9091555050600081815260026020526040808220805473ffffffffffffffffffffffffffffffffffffffff19166001600160a01b03861690811790915590518392907fddf252ad1be2c89b69c2b068fc378daa952ba7f163c4a11628f55a4df523b3ef908290a45050565b60006001600160a01b0384163b1561140f57604051630a85bd0160e11b81526001600160a01b0385169063150b7a029061130a903390899088908890600401611980565b6020604051808303816000875af1925050508015611345575060408051601f3d908101601f19168201909252611342918101906119bc565b60015b6113f5573d808015611373576040519150601f19603f3d011682016040523d82523d6000602084013e611378565b606091505b5080516113ed5760405162461bcd60e51b815260206004820152603260248201527f4552433732313a207472616e7366657220746f206e6f6e20455243373231526560448201527f63656976657220696d706c656d656e74657200000000000000000000000000006064820152608401610438565b805181602001fd5b6001600160e01b031916630a85bd0160e11b149050610cf3565b506001949350505050565b6000600161142784610854565b61143191906118f8565b600083815260076020526040902054909150808214611484576001600160a01b03841660009081526006602090815260408083208584528252808320548484528184208190558352600790915290208190555b5060009182526007602090815260408084208490556001600160a01b039094168352600681528383209183525290812055565b6008546000906114c9906001906118f8565b600083815260096020526040812054600880549394509092849081106114f1576114f161189d565b9060005260206000200154905080600883815481106115125761151261189d565b600091825260208083209091019290925582815260099091526040808220849055858252812055600880548061154a5761154a6119d9565b6001900381819060005260206000200160009055905550505050565b600061157183610854565b6001600160a01b039093166000908152600660209081526040808320868452825280832085905593825260079052919091209190915550565b6001600160e01b0319811681146115c057600080fd5b50565b6000602082840312156115d557600080fd5b8135610b32816115aa565b60005b838110156115fb5781810151838201526020016115e3565b83811115610a4a5750506000910152565b600081518084526116248160208601602086016115e0565b601f01601f19169290920160200192915050565b602081526000610b32602083018461160c565b60006020828403121561165d57600080fd5b5035919050565b80356001600160a01b038116811461167b57600080fd5b919050565b6000806040838503121561169357600080fd5b61169c83611664565b946020939093013593505050565b6000806000606084860312156116bf57600080fd5b6116c884611664565b92506116d660208501611664565b9150604084013590509250925092565b6000602082840312156116f857600080fd5b610b3282611664565b6000806040838503121561171457600080fd5b61171d83611664565b91506020830135801515811461173257600080fd5b809150509250929050565b634e487b7160e01b600052604160045260246000fd5b6000806000806080858703121561176957600080fd5b61177285611664565b935061178060208601611664565b925060408501359150606085013567ffffffffffffffff808211156117a457600080fd5b818701915087601f8301126117b857600080fd5b8135818111156117ca576117ca61173d565b604051601f8201601f19908116603f011681019083821181831017156117f2576117f261173d565b816040528281528a602084870101111561180b57600080fd5b82602086016020830137600060208483010152809550505050505092959194509250565b6000806040838503121561184257600080fd5b61184b83611664565b915061185960208401611664565b90509250929050565b600181811c9082168061187657607f821691505b6020821081141561189757634e487b7160e01b600052602260045260246000fd5b50919050565b634e487b7160e01b600052603260045260246000fd5b600083516118c58184602088016115e0565b8351908301906118d98183602088016115e0565b01949350505050565b634e487b7160e01b600052601160045260246000fd5b60008282101561190a5761190a6118e2565b500390565b60008219821115611922576119226118e2565b500190565b600060001982141561193b5761193b6118e2565b5060010190565b634e487b7160e01b600052601260045260246000fd5b60008261196757611967611942565b500490565b60008261197b5761197b611942565b500690565b60006001600160a01b038087168352808616602084015250836040830152608060608301526119b2608083018461160c565b9695505050505050565b6000602082840312156119ce57600080fd5b8151610b32816115aa565b634e487b7160e01b600052603160045260246000fdfea2646970667358221220c98dfcbd48eee24c339cb8aa119e34f2c71bcd4534366fb5660f8c8c8ce3484664736f6c634300080b0033a2646970667358221220734bd0259c0f1460ebe84ea431be4aec57b44aa133c7d58c4d655f4c94178a9d64736f6c634300080b0033",
  "devdoc": {
    "kind": "dev",
    "methods": {
      "mintERC721Collection(string,string,string,address,uint256)": {
        "params": {
          "_baseTokenURI": "Colleciton base token URI",
          "_name": "Collection name",
          "_symbol": "Collection symbol",
          "_to": "Collection receiver",
          "_tokenCount": "NFT count to mint"
        }
      }
    },
    "version": 1
  },
  "userdoc": {
    "kind": "user",
    "methods": {
      "mintERC721Collection(string,string,string,address,uint256)": {
        "notice": "Mint ERC721 collection"
      }
    },
    "version": 1
  },
  "storageLayout": {
    "storage": [],
    "types": null
  }
}