{
  "address": "0xb318793AE2fEAC0118a3b47E9185A5DD84b7147B",
  "abi": [
    {
      "anonymous": false,
      "inputs": [
        {
          "indexed": true,
          "internalType": "address",
          "name": "nftAddress",
          "type": "address"
        },
        {
          "indexed": true,
          "internalType": "uint256",
          "name": "tokenId",
          "type": "uint256"
        }
      ],
      "name": "AuctionCancelled",
      "type": "event"
    },
    {
      "anonymous": false,
      "inputs": [
        {
          "indexed": true,
          "internalType": "address",
          "name": "nftAddress",
          "type": "address"
        },
        {
          "indexed": true,
          "internalType": "uint256",
          "name": "tokenId",
          "type": "uint256"
        },
        {
          "indexed": false,
          "internalType": "address",
          "name": "payToken",
          "type": "address"
        }
      ],
      "name": "AuctionCreated",
      "type": "event"
    },
    {
      "anonymous": false,
      "inputs": [
        {
          "indexed": false,
          "internalType": "address",
          "name": "oldOwner",
          "type": "address"
        },
        {
          "indexed": true,
          "internalType": "address",
          "name": "nftAddress",
          "type": "address"
        },
        {
          "indexed": true,
          "internalType": "uint256",
          "name": "tokenId",
          "type": "uint256"
        },
        {
          "indexed": true,
          "internalType": "address",
          "name": "winner",
          "type": "address"
        },
        {
          "indexed": false,
          "internalType": "address",
          "name": "payToken",
          "type": "address"
        },
        {
          "indexed": false,
          "internalType": "uint256",
          "name": "winningBid",
          "type": "uint256"
        }
      ],
      "name": "AuctionResulted",
      "type": "event"
    },
    {
      "anonymous": false,
      "inputs": [
        {
          "indexed": true,
          "internalType": "address",
          "name": "nftAddress",
          "type": "address"
        },
        {
          "indexed": true,
          "internalType": "uint256",
          "name": "tokenId",
          "type": "uint256"
        },
        {
          "indexed": true,
          "internalType": "address",
          "name": "bidder",
          "type": "address"
        },
        {
          "indexed": false,
          "internalType": "uint256",
          "name": "bid",
          "type": "uint256"
        }
      ],
      "name": "BidPlaced",
      "type": "event"
    },
    {
      "anonymous": false,
      "inputs": [
        {
          "indexed": true,
          "internalType": "address",
          "name": "nftAddress",
          "type": "address"
        },
        {
          "indexed": true,
          "internalType": "uint256",
          "name": "tokenId",
          "type": "uint256"
        },
        {
          "indexed": true,
          "internalType": "address",
          "name": "bidder",
          "type": "address"
        },
        {
          "indexed": false,
          "internalType": "uint256",
          "name": "bid",
          "type": "uint256"
        }
      ],
      "name": "BidRefunded",
      "type": "event"
    },
    {
      "anonymous": false,
      "inputs": [
        {
          "indexed": true,
          "internalType": "address",
          "name": "nftAddress",
          "type": "address"
        },
        {
          "indexed": true,
          "internalType": "uint256",
          "name": "tokenId",
          "type": "uint256"
        },
        {
          "indexed": true,
          "internalType": "address",
          "name": "bidder",
          "type": "address"
        },
        {
          "indexed": false,
          "internalType": "uint256",
          "name": "bid",
          "type": "uint256"
        }
      ],
      "name": "BidWithdrawn",
      "type": "event"
    },
    {
      "anonymous": false,
      "inputs": [
        {
          "indexed": true,
          "internalType": "address",
          "name": "previousOwner",
          "type": "address"
        },
        {
          "indexed": true,
          "internalType": "address",
          "name": "newOwner",
          "type": "address"
        }
      ],
      "name": "OwnershipTransferred",
      "type": "event"
    },
    {
      "anonymous": false,
      "inputs": [
        {
          "indexed": false,
          "internalType": "address",
          "name": "account",
          "type": "address"
        }
      ],
      "name": "Paused",
      "type": "event"
    },
    {
      "anonymous": false,
      "inputs": [
        {
          "indexed": false,
          "internalType": "address",
          "name": "account",
          "type": "address"
        }
      ],
      "name": "Unpaused",
      "type": "event"
    },
    {
      "inputs": [],
      "name": "addressRegistry",
      "outputs": [
        {
          "internalType": "contract IAddressRegistry",
          "name": "",
          "type": "address"
        }
      ],
      "stateMutability": "view",
      "type": "function"
    },
    {
      "inputs": [
        {
          "internalType": "address",
          "name": "",
          "type": "address"
        },
        {
          "internalType": "uint256",
          "name": "",
          "type": "uint256"
        }
      ],
      "name": "auctions",
      "outputs": [
        {
          "internalType": "address",
          "name": "owner",
          "type": "address"
        },
        {
          "internalType": "address",
          "name": "payToken",
          "type": "address"
        },
        {
          "internalType": "uint256",
          "name": "minBid",
          "type": "uint256"
        },
        {
          "internalType": "uint256",
          "name": "reservePrice",
          "type": "uint256"
        },
        {
          "internalType": "uint256",
          "name": "startTime",
          "type": "uint256"
        },
        {
          "internalType": "uint256",
          "name": "endTime",
          "type": "uint256"
        },
        {
          "internalType": "bool",
          "name": "resulted",
          "type": "bool"
        }
      ],
      "stateMutability": "view",
      "type": "function"
    },
    {
      "inputs": [
        {
          "internalType": "address",
          "name": "_nftAddress",
          "type": "address"
        },
        {
          "internalType": "uint256",
          "name": "_tokenId",
          "type": "uint256"
        }
      ],
      "name": "cancelAuction",
      "outputs": [],
      "stateMutability": "nonpayable",
      "type": "function"
    },
    {
      "inputs": [
        {
          "internalType": "address",
          "name": "_nftAddress",
          "type": "address"
        },
        {
          "internalType": "uint256",
          "name": "_tokenId",
          "type": "uint256"
        },
        {
          "internalType": "address",
          "name": "_payToken",
          "type": "address"
        },
        {
          "internalType": "uint256",
          "name": "_reservePrice",
          "type": "uint256"
        },
        {
          "internalType": "uint256",
          "name": "_startTimestamp",
          "type": "uint256"
        },
        {
          "internalType": "bool",
          "name": "_minBidReserve",
          "type": "bool"
        },
        {
          "internalType": "uint256",
          "name": "_endTimestamp",
          "type": "uint256"
        }
      ],
      "name": "createAuction",
      "outputs": [],
      "stateMutability": "nonpayable",
      "type": "function"
    },
    {
      "inputs": [],
      "name": "feeRecipient",
      "outputs": [
        {
          "internalType": "address payable",
          "name": "",
          "type": "address"
        }
      ],
      "stateMutability": "view",
      "type": "function"
    },
    {
      "inputs": [
        {
          "internalType": "address",
          "name": "",
          "type": "address"
        },
        {
          "internalType": "uint256",
          "name": "",
          "type": "uint256"
        }
      ],
      "name": "highestBids",
      "outputs": [
        {
          "internalType": "address",
          "name": "bidder",
          "type": "address"
        },
        {
          "internalType": "uint256",
          "name": "bid",
          "type": "uint256"
        },
        {
          "internalType": "uint256",
          "name": "lastBidTime",
          "type": "uint256"
        }
      ],
      "stateMutability": "view",
      "type": "function"
    },
    {
      "inputs": [
        {
          "internalType": "address",
          "name": "_addressRegistry",
          "type": "address"
        },
        {
          "internalType": "address payable",
          "name": "_feeRecipient",
          "type": "address"
        },
        {
          "internalType": "uint256",
          "name": "_platformFee",
          "type": "uint256"
        }
      ],
      "name": "initialize",
      "outputs": [],
      "stateMutability": "nonpayable",
      "type": "function"
    },
    {
      "inputs": [],
      "name": "minBidIncrement",
      "outputs": [
        {
          "internalType": "uint256",
          "name": "",
          "type": "uint256"
        }
      ],
      "stateMutability": "view",
      "type": "function"
    },
    {
      "inputs": [],
      "name": "owner",
      "outputs": [
        {
          "internalType": "address",
          "name": "",
          "type": "address"
        }
      ],
      "stateMutability": "view",
      "type": "function"
    },
    {
      "inputs": [],
      "name": "pause",
      "outputs": [],
      "stateMutability": "nonpayable",
      "type": "function"
    },
    {
      "inputs": [],
      "name": "paused",
      "outputs": [
        {
          "internalType": "bool",
          "name": "",
          "type": "bool"
        }
      ],
      "stateMutability": "view",
      "type": "function"
    },
    {
      "inputs": [
        {
          "internalType": "address",
          "name": "_nftAddress",
          "type": "address"
        },
        {
          "internalType": "uint256",
          "name": "_tokenId",
          "type": "uint256"
        },
        {
          "internalType": "uint256",
          "name": "_bidAmount",
          "type": "uint256"
        }
      ],
      "name": "placeBid",
      "outputs": [],
      "stateMutability": "payable",
      "type": "function"
    },
    {
      "inputs": [],
      "name": "platformFee",
      "outputs": [
        {
          "internalType": "uint256",
          "name": "",
          "type": "uint256"
        }
      ],
      "stateMutability": "view",
      "type": "function"
    },
    {
      "inputs": [],
      "name": "renounceOwnership",
      "outputs": [],
      "stateMutability": "nonpayable",
      "type": "function"
    },
    {
      "inputs": [
        {
          "internalType": "address",
          "name": "_nftAddress",
          "type": "address"
        },
        {
          "internalType": "uint256",
          "name": "_tokenId",
          "type": "uint256"
        }
      ],
      "name": "resultAuction",
      "outputs": [],
      "stateMutability": "nonpayable",
      "type": "function"
    },
    {
      "inputs": [
        {
          "internalType": "address",
          "name": "newOwner",
          "type": "address"
        }
      ],
      "name": "transferOwnership",
      "outputs": [],
      "stateMutability": "nonpayable",
      "type": "function"
    },
    {
      "inputs": [],
      "name": "unpause",
      "outputs": [],
      "stateMutability": "nonpayable",
      "type": "function"
    },
    {
      "inputs": [
        {
          "internalType": "address",
          "name": "_nftAddress",
          "type": "address"
        },
        {
          "internalType": "uint256",
          "name": "_tokenId",
          "type": "uint256"
        }
      ],
      "name": "withdrawBid",
      "outputs": [],
      "stateMutability": "nonpayable",
      "type": "function"
    },
    {
      "stateMutability": "payable",
      "type": "receive"
    }
  ],
  "transactionHash": "0x58a789b8c571c7bf43a377bc9f58f127234f0bb7cf43a47ff66adce9ae912a89",
  "args": [],
  "numDeployments": 1,
  "solcInputHash": "15b3947fd486810d5b6775035b1b066d",
  "bytecode": "0x6080604052600160cb5534801561001557600080fd5b50612f26806100256000396000f3fe60806040526004361061012d5760003560e01c80635f7063ef116100a5578063859b97fe11610074578063ab2870e211610059578063ab2870e2146103ef578063f2fde38b1461040f578063f3ad65f41461042f57600080fd5b8063859b97fe146103b15780638da5cb5b146103d157600080fd5b80635f7063ef146102f15780636b753f3614610311578063715018a6146103875780638456cb591461039c57600080fd5b80633f4ba83a116100fc57806346904840116100e157806346904840146102765780634cb8ef5b146102ae5780635c975abb146102ce57600080fd5b80633f4ba83a146101ad57806344f91c1e146101c257600080fd5b806304717aca146101395780631794bb3c1461014e57806326232a2e1461016e578063335b115e1461019757600080fd5b3661013457005b600080fd5b61014c610147366004612c76565b61044f565b005b34801561015a57600080fd5b5061014c610169366004612cab565b61065a565b34801561017a57600080fd5b5061018460cd5481565b6040519081526020015b60405180910390f35b3480156101a357600080fd5b5061018460cb5481565b3480156101b957600080fd5b5061014c61085a565b3480156101ce57600080fd5b506102346101dd366004612cec565b60c960209081526000928352604080842090915290825290208054600182015460028301546003840154600485015460058601546006909601546001600160a01b0395861696959094169492939192909160ff1687565b604080516001600160a01b039889168152979096166020880152948601939093526060850191909152608084015260a0830152151560c082015260e00161018e565b34801561028257600080fd5b5060cc54610296906001600160a01b031681565b6040516001600160a01b03909116815260200161018e565b3480156102ba57600080fd5b5061014c6102c9366004612cec565b6108be565b3480156102da57600080fd5b5060975460ff16604051901515815260200161018e565b3480156102fd57600080fd5b5061014c61030c366004612cec565b610aec565b34801561031d57600080fd5b5061036261032c366004612cec565b60ca6020908152600092835260408084209091529082529020805460018201546002909201546001600160a01b03909116919083565b604080516001600160a01b03909416845260208401929092529082015260600161018e565b34801561039357600080fd5b5061014c61117b565b3480156103a857600080fd5b5061014c6111df565b3480156103bd57600080fd5b5061014c6103cc366004612cec565b611241565b3480156103dd57600080fd5b506033546001600160a01b0316610296565b3480156103fb57600080fd5b5061014c61040a366004612d26565b611499565b34801561041b57600080fd5b5061014c61042a366004612d98565b611665565b34801561043b57600080fd5b5060ce54610296906001600160a01b031681565b600260655414156104a75760405162461bcd60e51b815260206004820152601f60248201527f5265656e7472616e637947756172643a207265656e7472616e742063616c6c0060448201526064015b60405180910390fd5b600260655560975460ff16156104f25760405162461bcd60e51b815260206004820152601060248201526f14185d5cd8589b194e881c185d5cd95960821b604482015260640161049e565b3332146105415760405162461bcd60e51b815260206004820152601660248201527f6e6f20636f6e747261637473207065726d697474656400000000000000000000604482015260640161049e565b6001600160a01b03838116600090815260c960209081526040808320868452825291829020825160e08101845281548516815260018201549094169184019190915260028101549183019190915260038101546060830152600481015460808301819052600582015460a084015260069091015460ff16151560c083015242101580156105d2575060a08101514211155b6106445760405162461bcd60e51b815260206004820152602560248201527f62696464696e67206f757473696465206f66207468652061756374696f6e207760448201527f696e646f77000000000000000000000000000000000000000000000000000000606482015260840161049e565b61064f848484611747565b505060016065555050565b600054610100900460ff1680610673575060005460ff16155b6106d65760405162461bcd60e51b815260206004820152602e60248201527f496e697469616c697a61626c653a20636f6e747261637420697320616c72656160448201526d191e481a5b9a5d1a585b1a5e995960921b606482015260840161049e565b600054610100900460ff161580156106f8576000805461ffff19166101011790555b61070061197b565b610708611a3d565b610710611ae3565b6001600160a01b0384166107665760405162461bcd60e51b815260206004820152601b60248201527f756e657870656374656420616464726573732072656769737472790000000000604482015260640161049e565b6001600160a01b0383166107bc5760405162461bcd60e51b815260206004820152601860248201527f756e65787065637465642066656520726563697069656e740000000000000000604482015260640161049e565b6103e8821061080d5760405162461bcd60e51b815260206004820152601560248201527f706c6174666f726d206665652065786365656465640000000000000000000000604482015260640161049e565b60ce80546001600160a01b038087166001600160a01b03199283161790925560cc80549286169290911691909117905560cd8290558015610854576000805461ff00191690555b50505050565b6033546001600160a01b031633146108b45760405162461bcd60e51b815260206004820181905260248201527f4f776e61626c653a2063616c6c6572206973206e6f7420746865206f776e6572604482015260640161049e565b6108bc611b91565b565b600260655414156109115760405162461bcd60e51b815260206004820152601f60248201527f5265656e7472616e637947756172643a207265656e7472616e742063616c6c00604482015260640161049e565b60026065556001600160a01b03808316600090815260ca6020908152604080832085845290915290208054909116331461098d5760405162461bcd60e51b815260206004820152601e60248201527f796f7520617265206e6f74207468652068696768657374206269646465720000604482015260640161049e565b6001600160a01b038316600090815260c96020908152604080832085845290915290206005015480421180156109ce575061a8c06109cb8242612dcb565b10155b610a405760405162461bcd60e51b815260206004820152603660248201527f63616e207769746864726177206f6e6c7920616674657220313220686f75727360448201527f202861667465722061756374696f6e20656e6465642900000000000000000000606482015260840161049e565b6001808301546001600160a01b038616600090815260ca60209081526040808320888452909152812080546001600160a01b0319168155928301819055600290920191909155610a9285853384611c2d565b336001600160a01b031684866001600160a01b03167f867b8ea96dd803063f905a19f8117cbb1866ec7a594dfede75ab4a5235f61d7c84604051610ad891815260200190565b60405180910390a450506001606555505050565b60026065541415610b3f5760405162461bcd60e51b815260206004820152601f60248201527f5265656e7472616e637947756172643a207265656e7472616e742063616c6c00604482015260640161049e565b600260655560975460ff1615610b8a5760405162461bcd60e51b815260206004820152601060248201526f14185d5cd8589b194e881c185d5cd95960821b604482015260640161049e565b6001600160a01b038216600081815260c9602090815260408083208584529091529081902090516331a9108f60e11b81526004810184905290913391636352211e90602401602060405180830381865afa158015610bec573d6000803e3d6000fd5b505050506040513d601f19601f82011682018060405250810190610c109190612de2565b6001600160a01b0316148015610c2f575080546001600160a01b031633145b610c7b5760405162461bcd60e51b815260206004820152601960248201527f73656e646572206d757374206265206974656d206f776e657200000000000000604482015260640161049e565b6000816005015411610ccf5760405162461bcd60e51b815260206004820152601160248201527f6e6f2061756374696f6e20657869737473000000000000000000000000000000604482015260640161049e565b60058101544211610d225760405162461bcd60e51b815260206004820152601160248201527f61756374696f6e206e6f7420656e646564000000000000000000000000000000604482015260640161049e565b600681015460ff1615610d775760405162461bcd60e51b815260206004820152601860248201527f61756374696f6e20616c726561647920726573756c7465640000000000000000604482015260640161049e565b6001600160a01b03808416600090815260ca602090815260408083208684529091529020805460018201549192169081610df35760405162461bcd60e51b815260206004820152600c60248201527f6e6f206f70656e20626964730000000000000000000000000000000000000000604482015260640161049e565b8360030154811015610e515760405162461bcd60e51b815260206004820152602160248201527f68696768657374206269642069732062656c6f772072657365727665507269636044820152606560f81b606482015260840161049e565b60405163e985e9c560e01b81523360048201523060248201526001600160a01b0387169063e985e9c590604401602060405180830381865afa158015610e9b573d6000803e3d6000fd5b505050506040513d601f19601f82011682018060405250810190610ebf9190612dff565b610f0b5760405162461bcd60e51b815260206004820152601460248201527f61756374696f6e206e6f7420617070726f766564000000000000000000000000604482015260640161049e565b60068401805460ff191660019081179091556001600160a01b038716600090815260ca60209081526040808320898452909152812080546001600160a01b0319168155918201819055600290910181905560cd546103e890610f6d9084612e1c565b610f779190612e3b565b600186015460cc549192506001600160a01b0390811691610f9b9183911684611d0b565b8554610fc5906001600160a01b0316610fb48486612dcb565b6001600160a01b0384169190611d0b565b6040516331a9108f60e11b8152600481018890526001600160a01b038916906342842e0e908290636352211e90602401602060405180830381865afa158015611012573d6000803e3d6000fd5b505050506040513d601f19601f820116820180604052508101906110369190612de2565b6040517fffffffff0000000000000000000000000000000000000000000000000000000060e084901b1681526001600160a01b0391821660048201529087166024820152604481018a9052606401600060405180830381600087803b15801561109e57600080fd5b505af11580156110b2573d6000803e3d6000fd5b505050506001600160a01b03888116600081815260c9602090815260408083208c8452825280832080546001600160a01b03199081168255600180830180549092169091556002820185905560038201859055600482018590556005820194909455600601805460ff19169055918a0154825133815290851691810191909152908101869052918616918991907f711ca8b50b8ecdd19a74ba6202f3169d1cb8d32cc13e96314ac083fe109cc02d9060600160405180910390a450506001606555505050505050565b6033546001600160a01b031633146111d55760405162461bcd60e51b815260206004820181905260248201527f4f776e61626c653a2063616c6c6572206973206e6f7420746865206f776e6572604482015260640161049e565b6108bc6000611da0565b6033546001600160a01b031633146112395760405162461bcd60e51b815260206004820181905260248201527f4f776e61626c653a2063616c6c6572206973206e6f7420746865206f776e6572604482015260640161049e565b6108bc611df2565b600260655414156112945760405162461bcd60e51b815260206004820152601f60248201527f5265656e7472616e637947756172643a207265656e7472616e742063616c6c00604482015260640161049e565b600260658190556001600160a01b03838116600081815260c960209081526040808320878452825291829020825160e0810184528154861681526001820154909516918501919091529384015483820152600384015460608401526004808501546080850152600585015460a085015260069094015460ff16151560c0840152516331a9108f60e11b81529283018490529091339190636352211e90602401602060405180830381865afa158015611350573d6000803e3d6000fd5b505050506040513d601f19601f820116820180604052508101906113749190612de2565b6001600160a01b0316148015611393575080516001600160a01b031633145b6113df5760405162461bcd60e51b815260206004820152601460248201527f73656e646572206d757374206265206f776e6572000000000000000000000000604482015260640161049e565b60008160a00151116114335760405162461bcd60e51b815260206004820152601160248201527f6e6f2061756374696f6e20657869737473000000000000000000000000000000604482015260640161049e565b8060c00151156114855760405162461bcd60e51b815260206004820152601860248201527f61756374696f6e20616c726561647920726573756c7465640000000000000000604482015260640161049e565b61148f8383611e6d565b5050600160655550565b60975460ff16156114df5760405162461bcd60e51b815260206004820152601060248201526f14185d5cd8589b194e881c185d5cd95960821b604482015260640161049e565b6040516331a9108f60e11b81526004810187905233906001600160a01b03891690636352211e90602401602060405180830381865afa158015611526573d6000803e3d6000fd5b505050506040513d601f19601f8201168201806040525081019061154a9190612de2565b6001600160a01b03161480156115c9575060405163e985e9c560e01b81523360048201523060248201526001600160a01b0388169063e985e9c590604401602060405180830381865afa1580156115a5573d6000803e3d6000fd5b505050506040513d601f19601f820116820180604052508101906115c99190612dff565b61163b5760405162461bcd60e51b815260206004820152602660248201527f6e6f74206f776e657220616e64206f7220636f6e7472616374206e6f7420617060448201527f70726f7665640000000000000000000000000000000000000000000000000000606482015260840161049e565b61164487611f88565b61164d85612137565b61165c878787878787876122f7565b50505050505050565b6033546001600160a01b031633146116bf5760405162461bcd60e51b815260206004820181905260248201527f4f776e61626c653a2063616c6c6572206973206e6f7420746865206f776e6572604482015260640161049e565b6001600160a01b03811661173b5760405162461bcd60e51b815260206004820152602660248201527f4f776e61626c653a206e6577206f776e657220697320746865207a65726f206160448201527f6464726573730000000000000000000000000000000000000000000000000000606482015260840161049e565b61174481611da0565b50565b60975460ff161561178d5760405162461bcd60e51b815260206004820152601060248201526f14185d5cd8589b194e881c185d5cd95960821b604482015260640161049e565b6001600160a01b038316600090815260c960209081526040808320858452909152902060038101546002820154141561183a57806003015482101561183a5760405162461bcd60e51b815260206004820152602660248201527f6269642063616e6e6f74206265206c6f776572207468616e207265736572766560448201527f2070726963650000000000000000000000000000000000000000000000000000606482015260840161049e565b6001600160a01b038416600090815260ca60209081526040808320868452909152812060cb5460018201549192916118729190612e5d565b9050808410156118c45760405162461bcd60e51b815260206004820152601f60248201527f6661696c656420746f206f757462696420686967686573742062696464657200604482015260640161049e565b60018301546118e090339030906001600160a01b0316876125c4565b81546001600160a01b03161561190e578154600183015461190e91889188916001600160a01b031690611c2d565b81546001600160a01b031916331782556001820184905561192c4290565b6002830155604051848152339086906001600160a01b038916907f0158f5674dc243762459b88cfc91b10d2d1ef9d40821cca978c2b680aa4446829060200160405180910390a4505050505050565b600054610100900460ff1680611994575060005460ff16155b6119f75760405162461bcd60e51b815260206004820152602e60248201527f496e697469616c697a61626c653a20636f6e747261637420697320616c72656160448201526d191e481a5b9a5d1a585b1a5e995960921b606482015260840161049e565b600054610100900460ff16158015611a19576000805461ffff19166101011790555b611a216126e8565b611a29612799565b8015611744576000805461ff001916905550565b600054610100900460ff1680611a56575060005460ff16155b611ab95760405162461bcd60e51b815260206004820152602e60248201527f496e697469616c697a61626c653a20636f6e747261637420697320616c72656160448201526d191e481a5b9a5d1a585b1a5e995960921b606482015260840161049e565b600054610100900460ff16158015611adb576000805461ffff19166101011790555b611a29612840565b600054610100900460ff1680611afc575060005460ff16155b611b5f5760405162461bcd60e51b815260206004820152602e60248201527f496e697469616c697a61626c653a20636f6e747261637420697320616c72656160448201526d191e481a5b9a5d1a585b1a5e995960921b606482015260840161049e565b600054610100900460ff16158015611b81576000805461ffff19166101011790555b611b896126e8565b611a296128f7565b60975460ff16611be35760405162461bcd60e51b815260206004820152601460248201527f5061757361626c653a206e6f7420706175736564000000000000000000000000604482015260640161049e565b6097805460ff191690557f5db9ee0a495bf2e6ff9c91a7834c1ba4fdd244a5e8aa4e537bd38aeae4b073aa335b6040516001600160a01b03909116815260200160405180910390a1565b6001600160a01b03808516600090815260c960209081526040808320878452825291829020825160e08101845281548516815260018201549094169184018290526002810154928401929092526003820154606084015260048201546080840152600582015460a084015260069091015460ff16151560c0830152611cb69030908590856125c4565b826001600160a01b031684866001600160a01b03167f90e20d1ba82eaa07a212267355536f76bc83bf91c81fd41b74283c4082e7695285604051611cfc91815260200190565b60405180910390a45050505050565b6040516001600160a01b038316602482015260448101829052611d9b90849063a9059cbb60e01b906064015b60408051601f198184030181529190526020810180517bffffffffffffffffffffffffffffffffffffffffffffffffffffffff167fffffffff00000000000000000000000000000000000000000000000000000000909316929092179091526129b3565b505050565b603380546001600160a01b038381166001600160a01b0319831681179093556040519116919082907f8be0079c531659141344cd1fd0a4f28419497f9722a3daafe3b4186f6b6457e090600090a35050565b60975460ff1615611e385760405162461bcd60e51b815260206004820152601060248201526f14185d5cd8589b194e881c185d5cd95960821b604482015260640161049e565b6097805460ff191660011790557f62e78cea01bee320cd4e420270b5ea74000d11b0c9f74754ebdbfc544b05a258611c103390565b6001600160a01b03808316600090815260ca602090815260408083208584529091529020805490911615611ef65780546001820154611eb991859185916001600160a01b031690611c2d565b6001600160a01b038316600090815260ca60209081526040808320858452909152812080546001600160a01b031916815560018101829055600201555b6001600160a01b038316600081815260c96020908152604080832086845290915280822080546001600160a01b03199081168255600182018054909116905560028101839055600381018390556004810183905560058101839055600601805460ff19169055518492917f018b64b6242d32aa550e95d78985b938d71af5b3f10827b0683f55da1639304891a3505050565b60ce5460408051639d23c4c760e01b815290516000926001600160a01b031691639d23c4c79160048083019260209291908290030181865afa158015611fd2573d6000803e3d6000fd5b505050506040513d601f19601f82011682018060405250810190611ff69190612de2565b6001600160a01b0316141580156120eb575060ce60009054906101000a90046001600160a01b03166001600160a01b0316639d23c4c76040518163ffffffff1660e01b8152600401602060405180830381865afa15801561205b573d6000803e3d6000fd5b505050506040513d601f19601f8201168201806040525081019061207f9190612de2565b60405163b17721a760e01b81526001600160a01b038381166004830152919091169063b17721a790602401602060405180830381865afa1580156120c7573d6000803e3d6000fd5b505050506040513d601f19601f820116820180604052508101906120eb9190612dff565b6117445760405162461bcd60e51b815260206004820152601260248201527f696e76616c696420636f6c6c656374696f6e0000000000000000000000000000604482015260640161049e565b6001600160a01b03811615806122ab575060ce5460408051639d23c4c760e01b815290516000926001600160a01b031691639d23c4c79160048083019260209291908290030181865afa158015612192573d6000803e3d6000fd5b505050506040513d601f19601f820116820180604052508101906121b69190612de2565b6001600160a01b0316141580156122ab575060ce60009054906101000a90046001600160a01b03166001600160a01b0316639d23c4c76040518163ffffffff1660e01b8152600401602060405180830381865afa15801561221b573d6000803e3d6000fd5b505050506040513d601f19601f8201168201806040525081019061223f9190612de2565b6040516314d1e48160e01b81526001600160a01b03838116600483015291909116906314d1e48190602401602060405180830381865afa158015612287573d6000803e3d6000fd5b505050506040513d601f19601f820116820180604052508101906122ab9190612dff565b6117445760405162461bcd60e51b815260206004820152601160248201527f696e76616c69642070617920746f6b656e000000000000000000000000000000604482015260640161049e565b6001600160a01b038716600090815260c9602090815260408083208984529091529020600501541561236b5760405162461bcd60e51b815260206004820152601760248201527f61756374696f6e20616c72656164792073746172746564000000000000000000604482015260640161049e565b6123778361012c612e5d565b8110156123ec5760405162461bcd60e51b815260206004820152603260248201527f656e642074696d65206d7573742062652067726561746572207468616e20737460448201527f617274202862792035206d696e75746573290000000000000000000000000000606482015260840161049e565b42831161243b5760405162461bcd60e51b815260206004820152601260248201527f696e76616c69642073746172742074696d650000000000000000000000000000604482015260640161049e565b600082156124465750835b6040518060e00160405280336001600160a01b03168152602001876001600160a01b031681526020018281526020018681526020018581526020018381526020016000151581525060c960008a6001600160a01b03166001600160a01b03168152602001908152602001600020600089815260200190815260200160002060008201518160000160006101000a8154816001600160a01b0302191690836001600160a01b0316021790555060208201518160010160006101000a8154816001600160a01b0302191690836001600160a01b0316021790555060408201518160020155606082015181600301556080820151816004015560a0820151816005015560c08201518160060160006101000a81548160ff02191690831515021790555090505086886001600160a01b03167fca437d90ed6373b827a01275bd2fdfe7e6406d7ecd400662ee0533d3546ab17a886040516125b291906001600160a01b0391909116815260200190565b60405180910390a35050505050505050565b6001600160a01b0382166126d3576001600160a01b038416301461262a5760405162461bcd60e51b815260206004820152601460248201527f696e76616c69642045746865722073656e646572000000000000000000000000604482015260640161049e565b6000836001600160a01b03168260405160006040518083038185875af1925050503d8060008114612677576040519150601f19603f3d011682016040523d82523d6000602084013e61267c565b606091505b50509050806126cd5760405162461bcd60e51b815260206004820152601460248201527f6661696c656420746f2073656e64204574686572000000000000000000000000604482015260640161049e565b50610854565b6108546001600160a01b038316858584612a98565b600054610100900460ff1680612701575060005460ff16155b6127645760405162461bcd60e51b815260206004820152602e60248201527f496e697469616c697a61626c653a20636f6e747261637420697320616c72656160448201526d191e481a5b9a5d1a585b1a5e995960921b606482015260840161049e565b600054610100900460ff16158015611a29576000805461ffff19166101011790558015611744576000805461ff001916905550565b600054610100900460ff16806127b2575060005460ff16155b6128155760405162461bcd60e51b815260206004820152602e60248201527f496e697469616c697a61626c653a20636f6e747261637420697320616c72656160448201526d191e481a5b9a5d1a585b1a5e995960921b606482015260840161049e565b600054610100900460ff16158015612837576000805461ffff19166101011790555b611a2933611da0565b600054610100900460ff1680612859575060005460ff16155b6128bc5760405162461bcd60e51b815260206004820152602e60248201527f496e697469616c697a61626c653a20636f6e747261637420697320616c72656160448201526d191e481a5b9a5d1a585b1a5e995960921b606482015260840161049e565b600054610100900460ff161580156128de576000805461ffff19166101011790555b60016065558015611744576000805461ff001916905550565b600054610100900460ff1680612910575060005460ff16155b6129735760405162461bcd60e51b815260206004820152602e60248201527f496e697469616c697a61626c653a20636f6e747261637420697320616c72656160448201526d191e481a5b9a5d1a585b1a5e995960921b606482015260840161049e565b600054610100900460ff16158015612995576000805461ffff19166101011790555b6097805460ff191690558015611744576000805461ff001916905550565b6000612a08826040518060400160405280602081526020017f5361666545524332303a206c6f772d6c6576656c2063616c6c206661696c6564815250856001600160a01b0316612ad09092919063ffffffff16565b805190915015611d9b5780806020019051810190612a269190612dff565b611d9b5760405162461bcd60e51b815260206004820152602a60248201527f5361666545524332303a204552433230206f7065726174696f6e20646964206e60448201527f6f74207375636365656400000000000000000000000000000000000000000000606482015260840161049e565b6040516001600160a01b03808516602483015283166044820152606481018290526108549085906323b872dd60e01b90608401611d37565b6060612adf8484600085612ae9565b90505b9392505050565b606082471015612b615760405162461bcd60e51b815260206004820152602660248201527f416464726573733a20696e73756666696369656e742062616c616e636520666f60448201527f722063616c6c0000000000000000000000000000000000000000000000000000606482015260840161049e565b843b612baf5760405162461bcd60e51b815260206004820152601d60248201527f416464726573733a2063616c6c20746f206e6f6e2d636f6e7472616374000000604482015260640161049e565b600080866001600160a01b03168587604051612bcb9190612ea1565b60006040518083038185875af1925050503d8060008114612c08576040519150601f19603f3d011682016040523d82523d6000602084013e612c0d565b606091505b5091509150612c1d828286612c28565b979650505050505050565b60608315612c37575081612ae2565b825115612c475782518084602001fd5b8160405162461bcd60e51b815260040161049e9190612ebd565b6001600160a01b038116811461174457600080fd5b600080600060608486031215612c8b57600080fd5b8335612c9681612c61565b95602085013595506040909401359392505050565b600080600060608486031215612cc057600080fd5b8335612ccb81612c61565b92506020840135612cdb81612c61565b929592945050506040919091013590565b60008060408385031215612cff57600080fd5b8235612d0a81612c61565b946020939093013593505050565b801515811461174457600080fd5b600080600080600080600060e0888a031215612d4157600080fd5b8735612d4c81612c61565b9650602088013595506040880135612d6381612c61565b9450606088013593506080880135925060a0880135612d8181612d18565b8092505060c0880135905092959891949750929550565b600060208284031215612daa57600080fd5b8135612ae281612c61565b634e487b7160e01b600052601160045260246000fd5b600082821015612ddd57612ddd612db5565b500390565b600060208284031215612df457600080fd5b8151612ae281612c61565b600060208284031215612e1157600080fd5b8151612ae281612d18565b6000816000190483118215151615612e3657612e36612db5565b500290565b600082612e5857634e487b7160e01b600052601260045260246000fd5b500490565b60008219821115612e7057612e70612db5565b500190565b60005b83811015612e90578181015183820152602001612e78565b838111156108545750506000910152565b60008251612eb3818460208701612e75565b9190910192915050565b6020815260008251806020840152612edc816040850160208701612e75565b601f01601f1916919091016040019291505056fea26469706673582212207bdb6b8f1d8342f4f8a36b7b4215e0febe10dc312220c42c40ef02e9a0df039464736f6c634300080b0033",
  "devdoc": {
    "kind": "dev",
    "methods": {
      "cancelAuction(address,uint256)": {
        "details": "Only item owner",
        "params": {
          "_nftAddress": "ERC 721 Address",
          "_tokenId": "Token ID of the NFT being auctioned"
        }
      },
      "createAuction(address,uint256,address,uint256,uint256,bool,uint256)": {
        "details": "Only the owner of item can create an auction and must have approved the contractIn addition to owning the item, the sender also has to have the MINTER role.End time for the auction must be in the future.",
        "params": {
          "_endTimestamp": "Unix epoch in seconds for the auction end time.",
          "_minBidReserve": "Whether the reserve price should be applied or not",
          "_nftAddress": "ERC 721 Address",
          "_payToken": "Paying token",
          "_reservePrice": "Item cannot be sold for less than this or minBidIncrement, whichever is higher",
          "_startTimestamp": "Unix epoch in seconds for the auction start time",
          "_tokenId": "Token ID of the item being auctioned"
        }
      },
      "owner()": {
        "details": "Returns the address of the current owner."
      },
      "pause()": {
        "details": "Only owner"
      },
      "paused()": {
        "details": "Returns true if the contract is paused, and false otherwise."
      },
      "placeBid(address,uint256,uint256)": {
        "details": "Only callable when the auction is openBids from smart contracts are prohibited to prevent griefing with always reverting receiver",
        "params": {
          "_bidAmount": "Bid amount",
          "_nftAddress": "ERC 721 Address",
          "_tokenId": "Token ID of the item being auctioned"
        }
      },
      "renounceOwnership()": {
        "details": "Leaves the contract without owner. It will not be possible to call `onlyOwner` functions anymore. Can only be called by the current owner. NOTE: Renouncing ownership will leave the contract without an owner, thereby removing any functionality that is only available to the owner."
      },
      "resultAuction(address,uint256)": {
        "details": "Only admin or smart contractAuction can only be resulted if there has been a bidder and reserve met.If there have been no bids, the auction needs to be cancelled instead using `cancelAuction()`",
        "params": {
          "_nftAddress": "ERC 721 Address",
          "_tokenId": "Token ID of the item being auctioned"
        }
      },
      "transferOwnership(address)": {
        "details": "Transfers ownership of the contract to a new account (`newOwner`). Can only be called by the current owner."
      },
      "unpause()": {
        "details": "Only owner"
      },
      "withdrawBid(address,uint256)": {
        "details": "Only callable by the existing top bidder",
        "params": {
          "_nftAddress": "ERC 721 Address",
          "_tokenId": "Token ID of the item being auctioned"
        }
      }
    },
    "version": 1
  },
  "userdoc": {
    "kind": "user",
    "methods": {
      "addressRegistry()": {
        "notice": "AddressRegistry"
      },
      "auctions(address,uint256)": {
        "notice": "ERC721 Address -> Token ID -> Auction Parameters"
      },
      "cancelAuction(address,uint256)": {
        "notice": "Cancels and inflight and un-resulted auctions, returning the funds to the top bidder if found"
      },
      "createAuction(address,uint256,address,uint256,uint256,bool,uint256)": {
        "notice": "Creates a new auction for a given item"
      },
      "feeRecipient()": {
        "notice": "Platform fee recipient"
      },
      "highestBids(address,uint256)": {
        "notice": "ERC721 Address -> Token ID -> highest bidder info (if a bid has been received)"
      },
      "minBidIncrement()": {
        "notice": "globally and across all auctions, the amount by which a bid has to increase"
      },
      "pause()": {
        "notice": "Pause Auction"
      },
      "placeBid(address,uint256,uint256)": {
        "notice": "Places a new bid, out bidding the existing bidder if found and criteria is reached"
      },
      "platformFee()": {
        "notice": "Platform fee"
      },
      "resultAuction(address,uint256)": {
        "notice": "Closes a finished auction and rewards the highest bidder"
      },
      "unpause()": {
        "notice": "Resume Auction"
      },
      "withdrawBid(address,uint256)": {
        "notice": "Allows the hightest bidder to withdraw the bid (after 12 hours post auction's end)"
      }
    },
    "version": 1
  },
  "storageLayout": {
    "storage": [
      {
        "astId": 130,
        "contract": "contracts/OPGamesAuction.sol:OPGamesAuction",
        "label": "_initialized",
        "offset": 0,
        "slot": "0",
        "type": "t_bool"
      },
      {
        "astId": 133,
        "contract": "contracts/OPGamesAuction.sol:OPGamesAuction",
        "label": "_initializing",
        "offset": 1,
        "slot": "0",
        "type": "t_bool"
      },
      {
        "astId": 1167,
        "contract": "contracts/OPGamesAuction.sol:OPGamesAuction",
        "label": "__gap",
        "offset": 0,
        "slot": "1",
        "type": "t_array(t_uint256)50_storage"
      },
      {
        "astId": 10,
        "contract": "contracts/OPGamesAuction.sol:OPGamesAuction",
        "label": "_owner",
        "offset": 0,
        "slot": "51",
        "type": "t_address"
      },
      {
        "astId": 123,
        "contract": "contracts/OPGamesAuction.sol:OPGamesAuction",
        "label": "__gap",
        "offset": 0,
        "slot": "52",
        "type": "t_array(t_uint256)49_storage"
      },
      {
        "astId": 297,
        "contract": "contracts/OPGamesAuction.sol:OPGamesAuction",
        "label": "_status",
        "offset": 0,
        "slot": "101",
        "type": "t_uint256"
      },
      {
        "astId": 340,
        "contract": "contracts/OPGamesAuction.sol:OPGamesAuction",
        "label": "__gap",
        "offset": 0,
        "slot": "102",
        "type": "t_array(t_uint256)49_storage"
      },
      {
        "astId": 191,
        "contract": "contracts/OPGamesAuction.sol:OPGamesAuction",
        "label": "_paused",
        "offset": 0,
        "slot": "151",
        "type": "t_bool"
      },
      {
        "astId": 282,
        "contract": "contracts/OPGamesAuction.sol:OPGamesAuction",
        "label": "__gap",
        "offset": 0,
        "slot": "152",
        "type": "t_array(t_uint256)49_storage"
      },
      {
        "astId": 1402,
        "contract": "contracts/OPGamesAuction.sol:OPGamesAuction",
        "label": "auctions",
        "offset": 0,
        "slot": "201",
        "type": "t_mapping(t_address,t_mapping(t_uint256,t_struct(Auction)1387_storage))"
      },
      {
        "astId": 1410,
        "contract": "contracts/OPGamesAuction.sol:OPGamesAuction",
        "label": "highestBids",
        "offset": 0,
        "slot": "202",
        "type": "t_mapping(t_address,t_mapping(t_uint256,t_struct(HighestBid)1394_storage))"
      },
      {
        "astId": 1414,
        "contract": "contracts/OPGamesAuction.sol:OPGamesAuction",
        "label": "minBidIncrement",
        "offset": 0,
        "slot": "203",
        "type": "t_uint256"
      },
      {
        "astId": 1417,
        "contract": "contracts/OPGamesAuction.sol:OPGamesAuction",
        "label": "feeRecipient",
        "offset": 0,
        "slot": "204",
        "type": "t_address_payable"
      },
      {
        "astId": 1420,
        "contract": "contracts/OPGamesAuction.sol:OPGamesAuction",
        "label": "platformFee",
        "offset": 0,
        "slot": "205",
        "type": "t_uint256"
      },
      {
        "astId": 1424,
        "contract": "contracts/OPGamesAuction.sol:OPGamesAuction",
        "label": "addressRegistry",
        "offset": 0,
        "slot": "206",
        "type": "t_contract(IAddressRegistry)4072"
      }
    ],
    "types": {
      "t_address": {
        "encoding": "inplace",
        "label": "address",
        "numberOfBytes": "20"
      },
      "t_address_payable": {
        "encoding": "inplace",
        "label": "address payable",
        "numberOfBytes": "20"
      },
      "t_array(t_uint256)49_storage": {
        "base": "t_uint256",
        "encoding": "inplace",
        "label": "uint256[49]",
        "numberOfBytes": "1568"
      },
      "t_array(t_uint256)50_storage": {
        "base": "t_uint256",
        "encoding": "inplace",
        "label": "uint256[50]",
        "numberOfBytes": "1600"
      },
      "t_bool": {
        "encoding": "inplace",
        "label": "bool",
        "numberOfBytes": "1"
      },
      "t_contract(IAddressRegistry)4072": {
        "encoding": "inplace",
        "label": "contract IAddressRegistry",
        "numberOfBytes": "20"
      },
      "t_mapping(t_address,t_mapping(t_uint256,t_struct(Auction)1387_storage))": {
        "encoding": "mapping",
        "key": "t_address",
        "label": "mapping(address => mapping(uint256 => struct OPGamesAuction.Auction))",
        "numberOfBytes": "32",
        "value": "t_mapping(t_uint256,t_struct(Auction)1387_storage)"
      },
      "t_mapping(t_address,t_mapping(t_uint256,t_struct(HighestBid)1394_storage))": {
        "encoding": "mapping",
        "key": "t_address",
        "label": "mapping(address => mapping(uint256 => struct OPGamesAuction.HighestBid))",
        "numberOfBytes": "32",
        "value": "t_mapping(t_uint256,t_struct(HighestBid)1394_storage)"
      },
      "t_mapping(t_uint256,t_struct(Auction)1387_storage)": {
        "encoding": "mapping",
        "key": "t_uint256",
        "label": "mapping(uint256 => struct OPGamesAuction.Auction)",
        "numberOfBytes": "32",
        "value": "t_struct(Auction)1387_storage"
      },
      "t_mapping(t_uint256,t_struct(HighestBid)1394_storage)": {
        "encoding": "mapping",
        "key": "t_uint256",
        "label": "mapping(uint256 => struct OPGamesAuction.HighestBid)",
        "numberOfBytes": "32",
        "value": "t_struct(HighestBid)1394_storage"
      },
      "t_struct(Auction)1387_storage": {
        "encoding": "inplace",
        "label": "struct OPGamesAuction.Auction",
        "members": [
          {
            "astId": 1374,
            "contract": "contracts/OPGamesAuction.sol:OPGamesAuction",
            "label": "owner",
            "offset": 0,
            "slot": "0",
            "type": "t_address"
          },
          {
            "astId": 1376,
            "contract": "contracts/OPGamesAuction.sol:OPGamesAuction",
            "label": "payToken",
            "offset": 0,
            "slot": "1",
            "type": "t_address"
          },
          {
            "astId": 1378,
            "contract": "contracts/OPGamesAuction.sol:OPGamesAuction",
            "label": "minBid",
            "offset": 0,
            "slot": "2",
            "type": "t_uint256"
          },
          {
            "astId": 1380,
            "contract": "contracts/OPGamesAuction.sol:OPGamesAuction",
            "label": "reservePrice",
            "offset": 0,
            "slot": "3",
            "type": "t_uint256"
          },
          {
            "astId": 1382,
            "contract": "contracts/OPGamesAuction.sol:OPGamesAuction",
            "label": "startTime",
            "offset": 0,
            "slot": "4",
            "type": "t_uint256"
          },
          {
            "astId": 1384,
            "contract": "contracts/OPGamesAuction.sol:OPGamesAuction",
            "label": "endTime",
            "offset": 0,
            "slot": "5",
            "type": "t_uint256"
          },
          {
            "astId": 1386,
            "contract": "contracts/OPGamesAuction.sol:OPGamesAuction",
            "label": "resulted",
            "offset": 0,
            "slot": "6",
            "type": "t_bool"
          }
        ],
        "numberOfBytes": "224"
      },
      "t_struct(HighestBid)1394_storage": {
        "encoding": "inplace",
        "label": "struct OPGamesAuction.HighestBid",
        "members": [
          {
            "astId": 1389,
            "contract": "contracts/OPGamesAuction.sol:OPGamesAuction",
            "label": "bidder",
            "offset": 0,
            "slot": "0",
            "type": "t_address"
          },
          {
            "astId": 1391,
            "contract": "contracts/OPGamesAuction.sol:OPGamesAuction",
            "label": "bid",
            "offset": 0,
            "slot": "1",
            "type": "t_uint256"
          },
          {
            "astId": 1393,
            "contract": "contracts/OPGamesAuction.sol:OPGamesAuction",
            "label": "lastBidTime",
            "offset": 0,
            "slot": "2",
            "type": "t_uint256"
          }
        ],
        "numberOfBytes": "96"
      },
      "t_uint256": {
        "encoding": "inplace",
        "label": "uint256",
        "numberOfBytes": "32"
      }
    }
  }
}