{
  "address": "0xe28C72dC875Ee0eCc6A19F517A2A9dA6a3462043",
  "abi": [
    {
      "anonymous": false,
      "inputs": [
        {
          "indexed": true,
          "internalType": "address",
          "name": "by",
          "type": "address"
        },
        {
          "indexed": true,
          "internalType": "address",
          "name": "collection",
          "type": "address"
        }
      ],
      "name": "CollectionAdded",
      "type": "event"
    },
    {
      "anonymous": false,
      "inputs": [
        {
          "indexed": true,
          "internalType": "address",
          "name": "by",
          "type": "address"
        },
        {
          "indexed": true,
          "internalType": "address",
          "name": "collection",
          "type": "address"
        }
      ],
      "name": "CollectionRemoved",
      "type": "event"
    },
    {
      "anonymous": false,
      "inputs": [
        {
          "indexed": true,
          "internalType": "address",
          "name": "previousOwner",
          "type": "address"
        },
        {
          "indexed": true,
          "internalType": "address",
          "name": "newOwner",
          "type": "address"
        }
      ],
      "name": "OwnershipTransferred",
      "type": "event"
    },
    {
      "anonymous": false,
      "inputs": [
        {
          "indexed": true,
          "internalType": "address",
          "name": "by",
          "type": "address"
        },
        {
          "indexed": true,
          "internalType": "address",
          "name": "token",
          "type": "address"
        }
      ],
      "name": "PayTokenAdded",
      "type": "event"
    },
    {
      "anonymous": false,
      "inputs": [
        {
          "indexed": true,
          "internalType": "address",
          "name": "by",
          "type": "address"
        },
        {
          "indexed": true,
          "internalType": "address",
          "name": "token",
          "type": "address"
        }
      ],
      "name": "PayTokenRemoved",
      "type": "event"
    },
    {
      "inputs": [
        {
          "internalType": "address",
          "name": "_nftAddress",
          "type": "address"
        }
      ],
      "name": "addCollection",
      "outputs": [],
      "stateMutability": "nonpayable",
      "type": "function"
    },
    {
      "inputs": [
        {
          "internalType": "address",
          "name": "_token",
          "type": "address"
        }
      ],
      "name": "addPayToken",
      "outputs": [],
      "stateMutability": "nonpayable",
      "type": "function"
    },
    {
      "inputs": [
        {
          "internalType": "address",
          "name": "",
          "type": "address"
        }
      ],
      "name": "enabledCollection",
      "outputs": [
        {
          "internalType": "bool",
          "name": "",
          "type": "bool"
        }
      ],
      "stateMutability": "view",
      "type": "function"
    },
    {
      "inputs": [
        {
          "internalType": "address",
          "name": "",
          "type": "address"
        }
      ],
      "name": "enabledPayToken",
      "outputs": [
        {
          "internalType": "bool",
          "name": "",
          "type": "bool"
        }
      ],
      "stateMutability": "view",
      "type": "function"
    },
    {
      "inputs": [],
      "name": "initialize",
      "outputs": [],
      "stateMutability": "nonpayable",
      "type": "function"
    },
    {
      "inputs": [],
      "name": "owner",
      "outputs": [
        {
          "internalType": "address",
          "name": "",
          "type": "address"
        }
      ],
      "stateMutability": "view",
      "type": "function"
    },
    {
      "inputs": [
        {
          "internalType": "address",
          "name": "_nftAddress",
          "type": "address"
        }
      ],
      "name": "removeCollection",
      "outputs": [],
      "stateMutability": "nonpayable",
      "type": "function"
    },
    {
      "inputs": [
        {
          "internalType": "address",
          "name": "_token",
          "type": "address"
        }
      ],
      "name": "removePayToken",
      "outputs": [],
      "stateMutability": "nonpayable",
      "type": "function"
    },
    {
      "inputs": [],
      "name": "renounceOwnership",
      "outputs": [],
      "stateMutability": "nonpayable",
      "type": "function"
    },
    {
      "inputs": [
        {
          "internalType": "address",
          "name": "newOwner",
          "type": "address"
        }
      ],
      "name": "transferOwnership",
      "outputs": [],
      "stateMutability": "nonpayable",
      "type": "function"
    }
  ],
  "transactionHash": "0x84dabaca1627f87f627ada16982553b3094c1735b14ce73811cd02b26563f4ec",
  "args": [],
  "numDeployments": 1,
  "solcInputHash": "15b3947fd486810d5b6775035b1b066d",
  "bytecode": "0x608060405234801561001057600080fd5b50610c61806100206000396000f3fe608060405234801561001057600080fd5b50600436106100be5760003560e01c8063a174e77a11610076578063b17721a71161005b578063b17721a714610161578063dbf14fbe14610184578063f2fde38b1461019757600080fd5b8063a174e77a1461013b578063a9cf2ed31461014e57600080fd5b8063715018a6116100a7578063715018a6146101105780638129fc1c146101185780638da5cb5b1461012057600080fd5b806314d1e481146100c35780635028d05a146100fb575b600080fd5b6100e66100d1366004610bd9565b60666020526000908152604090205460ff1681565b60405190151581526020015b60405180910390f35b61010e610109366004610bd9565b6101aa565b005b61010e6102bb565b61010e610321565b6033546040516001600160a01b0390911681526020016100f2565b61010e610149366004610bd9565b6103dc565b61010e61015c366004610bd9565b61061c565b6100e661016f366004610bd9565b60656020526000908152604090205460ff1681565b61010e610192366004610bd9565b610782565b61010e6101a5366004610bd9565b61088e565b6033546001600160a01b031633146102095760405162461bcd60e51b815260206004820181905260248201527f4f776e61626c653a2063616c6c6572206973206e6f7420746865206f776e657260448201526064015b60405180910390fd5b6001600160a01b03811660009081526065602052604090205460ff166102715760405162461bcd60e51b815260206004820152601460248201527f636f6c6c656374696f6e206e6f742065786973740000000000000000000000006044820152606401610200565b6001600160a01b038116600081815260656020526040808220805460ff191690555133917fc0c5a43813fb6a7ab47689d060d1ace5e2e35c113a13dcfb6aab657d527897b191a350565b6033546001600160a01b031633146103155760405162461bcd60e51b815260206004820181905260248201527f4f776e61626c653a2063616c6c6572206973206e6f7420746865206f776e65726044820152606401610200565b61031f6000610969565b565b600054610100900460ff168061033a575060005460ff16155b61039d5760405162461bcd60e51b815260206004820152602e60248201527f496e697469616c697a61626c653a20636f6e747261637420697320616c72656160448201526d191e481a5b9a5d1a585b1a5e995960921b6064820152608401610200565b600054610100900460ff161580156103bf576000805461ffff19166101011790555b6103c76109d3565b80156103d9576000805461ff00191690555b50565b6033546001600160a01b031633146104365760405162461bcd60e51b815260206004820181905260248201527f4f776e61626c653a2063616c6c6572206973206e6f7420746865206f776e65726044820152606401610200565b6001600160a01b03811660009081526065602052604090205460ff161561049f5760405162461bcd60e51b815260206004820152601860248201527f636f6c6c656374696f6e20616c726561647920616464656400000000000000006044820152606401610200565b6040516301ffc9a760e01b81526380ac58cd60e01b60048201526001600160a01b038216906301ffc9a790602401602060405180830381865afa1580156104ea573d6000803e3d6000fd5b505050506040513d601f19601f8201168201806040525081019061050e9190610c09565b8061058357506040516301ffc9a760e01b8152636cdb3d1360e11b60048201526001600160a01b038216906301ffc9a790602401602060405180830381865afa15801561055f573d6000803e3d6000fd5b505050506040513d601f19601f820116820180604052508101906105839190610c09565b6105cf5760405162461bcd60e51b815260206004820152601560248201527f756e657870656374656420636f6c6c656374696f6e00000000000000000000006044820152606401610200565b6001600160a01b038116600081815260656020526040808220805460ff191660011790555133917fde026c5319b7c35f108a6ccfc922edc8008522079b610aee3c676bb7b7b7fb3591a350565b6033546001600160a01b031633146106765760405162461bcd60e51b815260206004820181905260248201527f4f776e61626c653a2063616c6c6572206973206e6f7420746865206f776e65726044820152606401610200565b6001600160a01b03811660009081526066602052604090205460ff16156106df5760405162461bcd60e51b815260206004820152601360248201527f746f6b656e20616c7265616479206164646564000000000000000000000000006044820152606401610200565b6001600160a01b0381166107355760405162461bcd60e51b815260206004820152601260248201527f7a65726f20746f6b656e206164647265737300000000000000000000000000006044820152606401610200565b6001600160a01b038116600081815260666020526040808220805460ff191660011790555133917f7b2bdb23aa6a4de8e9b62a8a28dc20bef74a62d181a8e5e830748533c0a9a55391a350565b6033546001600160a01b031633146107dc5760405162461bcd60e51b815260206004820181905260248201527f4f776e61626c653a2063616c6c6572206973206e6f7420746865206f776e65726044820152606401610200565b6001600160a01b03811660009081526066602052604090205460ff166108445760405162461bcd60e51b815260206004820152600f60248201527f746f6b656e206e6f7420657869737400000000000000000000000000000000006044820152606401610200565b6001600160a01b038116600081815260666020526040808220805460ff191690555133917f20656fe6febe70fc51dc5f0604eba319450e3a40a08417a01cc46f6e919064d691a350565b6033546001600160a01b031633146108e85760405162461bcd60e51b815260206004820181905260248201527f4f776e61626c653a2063616c6c6572206973206e6f7420746865206f776e65726044820152606401610200565b6001600160a01b0381166109645760405162461bcd60e51b815260206004820152602660248201527f4f776e61626c653a206e6577206f776e657220697320746865207a65726f206160448201527f64647265737300000000000000000000000000000000000000000000000000006064820152608401610200565b6103d9815b603380546001600160a01b038381167fffffffffffffffffffffffff0000000000000000000000000000000000000000831681179093556040519116919082907f8be0079c531659141344cd1fd0a4f28419497f9722a3daafe3b4186f6b6457e090600090a35050565b600054610100900460ff16806109ec575060005460ff16155b610a4f5760405162461bcd60e51b815260206004820152602e60248201527f496e697469616c697a61626c653a20636f6e747261637420697320616c72656160448201526d191e481a5b9a5d1a585b1a5e995960921b6064820152608401610200565b600054610100900460ff16158015610a71576000805461ffff19166101011790555b610a79610a81565b6103c7610b32565b600054610100900460ff1680610a9a575060005460ff16155b610afd5760405162461bcd60e51b815260206004820152602e60248201527f496e697469616c697a61626c653a20636f6e747261637420697320616c72656160448201526d191e481a5b9a5d1a585b1a5e995960921b6064820152608401610200565b600054610100900460ff161580156103c7576000805461ffff191661010117905580156103d9576000805461ff001916905550565b600054610100900460ff1680610b4b575060005460ff16155b610bae5760405162461bcd60e51b815260206004820152602e60248201527f496e697469616c697a61626c653a20636f6e747261637420697320616c72656160448201526d191e481a5b9a5d1a585b1a5e995960921b6064820152608401610200565b600054610100900460ff16158015610bd0576000805461ffff19166101011790555b6103c733610969565b600060208284031215610beb57600080fd5b81356001600160a01b0381168114610c0257600080fd5b9392505050565b600060208284031215610c1b57600080fd5b81518015158114610c0257600080fdfea26469706673582212206e71abf2df1858cc32432a5a653b4bdb21e018741a95742dc05b63c21706eff264736f6c634300080b0033",
  "devdoc": {
    "kind": "dev",
    "methods": {
      "addCollection(address)": {
        "details": "Only owner",
        "params": {
          "_nftAddress": "NFT address"
        }
      },
      "addPayToken(address)": {
        "details": "Only owner",
        "params": {
          "_token": "ERC20 token address"
        }
      },
      "owner()": {
        "details": "Returns the address of the current owner."
      },
      "removeCollection(address)": {
        "details": "Only owner",
        "params": {
          "_nftAddress": "NFT address"
        }
      },
      "removePayToken(address)": {
        "details": "Only owner",
        "params": {
          "_token": "ERC20 token address"
        }
      },
      "renounceOwnership()": {
        "details": "Leaves the contract without owner. It will not be possible to call `onlyOwner` functions anymore. Can only be called by the current owner. NOTE: Renouncing ownership will leave the contract without an owner, thereby removing any functionality that is only available to the owner."
      },
      "transferOwnership(address)": {
        "details": "Transfers ownership of the contract to a new account (`newOwner`). Can only be called by the current owner."
      }
    },
    "version": 1
  },
  "userdoc": {
    "kind": "user",
    "methods": {
      "addCollection(address)": {
        "notice": "Add NFT collection"
      },
      "addPayToken(address)": {
        "notice": "Add payment token"
      },
      "enabledCollection(address)": {
        "notice": "NFTAddress -> Bool"
      },
      "enabledPayToken(address)": {
        "notice": "Token -> Bool"
      },
      "removeCollection(address)": {
        "notice": "Remove NFT collection"
      },
      "removePayToken(address)": {
        "notice": "Remove payment token"
      }
    },
    "version": 1
  },
  "storageLayout": {
    "storage": [
      {
        "astId": 130,
        "contract": "contracts/TokenRegistry.sol:TokenRegistry",
        "label": "_initialized",
        "offset": 0,
        "slot": "0",
        "type": "t_bool"
      },
      {
        "astId": 133,
        "contract": "contracts/TokenRegistry.sol:TokenRegistry",
        "label": "_initializing",
        "offset": 1,
        "slot": "0",
        "type": "t_bool"
      },
      {
        "astId": 1167,
        "contract": "contracts/TokenRegistry.sol:TokenRegistry",
        "label": "__gap",
        "offset": 0,
        "slot": "1",
        "type": "t_array(t_uint256)50_storage"
      },
      {
        "astId": 10,
        "contract": "contracts/TokenRegistry.sol:TokenRegistry",
        "label": "_owner",
        "offset": 0,
        "slot": "51",
        "type": "t_address"
      },
      {
        "astId": 123,
        "contract": "contracts/TokenRegistry.sol:TokenRegistry",
        "label": "__gap",
        "offset": 0,
        "slot": "52",
        "type": "t_array(t_uint256)49_storage"
      },
      {
        "astId": 3898,
        "contract": "contracts/TokenRegistry.sol:TokenRegistry",
        "label": "enabledCollection",
        "offset": 0,
        "slot": "101",
        "type": "t_mapping(t_address,t_bool)"
      },
      {
        "astId": 3903,
        "contract": "contracts/TokenRegistry.sol:TokenRegistry",
        "label": "enabledPayToken",
        "offset": 0,
        "slot": "102",
        "type": "t_mapping(t_address,t_bool)"
      }
    ],
    "types": {
      "t_address": {
        "encoding": "inplace",
        "label": "address",
        "numberOfBytes": "20"
      },
      "t_array(t_uint256)49_storage": {
        "base": "t_uint256",
        "encoding": "inplace",
        "label": "uint256[49]",
        "numberOfBytes": "1568"
      },
      "t_array(t_uint256)50_storage": {
        "base": "t_uint256",
        "encoding": "inplace",
        "label": "uint256[50]",
        "numberOfBytes": "1600"
      },
      "t_bool": {
        "encoding": "inplace",
        "label": "bool",
        "numberOfBytes": "1"
      },
      "t_mapping(t_address,t_bool)": {
        "encoding": "mapping",
        "key": "t_address",
        "label": "mapping(address => bool)",
        "numberOfBytes": "32",
        "value": "t_bool"
      },
      "t_uint256": {
        "encoding": "inplace",
        "label": "uint256",
        "numberOfBytes": "32"
      }
    }
  }
}